:020000040800F2
:10000000B80B002091010008892100080F1B00088F
:10001000391F0008270500080B2800080000000011
:10002000000000000000000000000000252500087E
:100030007D060008000000008B210008C52600088E
:10004000AB010008AB010008AB010008AB010008E0
:10005000AB010008AB0100087F0600088506000818
:100060008B0600089106000897060008AB010008FF
:10007000AB010008AB010008AB010008AB010008B0
:10008000AB010008AB010008AB010008AB010008A0
:10009000AB010008AB010008AB0100089D06000899
:1000A000AB010008AB010008AB01000829270008DC
:1000B000AB010008AB010008AB010008AB01000870
:1000C000AB010008AB010008AB010008AB01000860
:1000D000AB010008AB010008AB010008AB01000850
:1000E000AB010008AB010008AB01000800F002F80A
:1000F00000F03FF80AA090E8000C82448344AAF183
:100100000107DA4501D100F034F8AFF2090EBAE880
:100110000F0013F0010F18BFFB1A43F0010318473B
:10012000984F0000B84F0000103A24BF78C878C13B
:10013000FAD8520724BF30C830C144BF04680C60ED
:10014000704700000023002400250026103A28BF35
:1001500078C1FBD8520728BF30C148BF0B60704739
:10016000642900F09180002070471FB51FBD10B5B5
:1001700010BD00F0A3F91146FFF7F7FF02F058FC9D
:1001800000F0C1F903B4FFF7F2FF03BC00F0C4F9BB
:100190000948804709480047FEE7FEE7FEE7FEE71B
:1001A000FEE7FEE7FEE7FEE7FEE7FEE70448054957
:1001B000054A064B7047000027270008ED0000089D
:1001C000B8050020B80B0020B8070020B8070020B1
:1001D000B2F120030AD5C2F1200320FA02F001FA9D
:1001E00003F321FA02F140EA0300704721FA03F019
:1001F0004FF00001704700000FB41CB5074B06AA72
:100200007B4469460090059800F015F90020694686
:1002100000F024F91CBC5DF814FB0000590200003A
:100220002DE9F0410E460446002020622046E16898
:10023000884730B3252805D0D4E901219047206AAA
:10024000401CF2E7E168204600278847050018D0E7
:10025000A5F14100192802D820354FF40067324635
:10026000294620462760FFF77BFF40B1012804D0D4
:10027000F61D26F007060836D8E7361DD6E72846CD
:10028000DAE7206ABDE8F0812DE9F0410646002456
:1002900010687529314616A510D0AFF300800028EC
:1002A00002DA404213A507E031688A0701D512A59A
:1002B00002E0490704D511A5012401E0AFF3008055
:1002C00000210A2206F1240709E0B0FBF2FCB0FB92
:1002D000F2F302FB1C00303078541846491C002809
:1002E000F3D123462A463046BDE8F04100F045B838
:1002F000000000002D0000002B0000002000000086
:1003000002F0FF0343EA032242EA024200F0ADB8E2
:100310004FF0000200B5134694469646203922BF9E
:10032000A0E80C50A0E80C50B1F12001BFF4F7AFE9
:10033000090728BFA0E80C5048BF0CC05DF804EBCB
:10034000890028BF40F8042B08BF704748BF20F839
:10035000022B11F0804F18BF00F8012B7047704737
:100360007047704710B500F0A1F8006810BD10B5D7
:10037000044600F09BF8046010BD2DE9F0470D46DF
:1003800099469246044600F124080168880604D57F
:10039000E06921F01001216000E00120A84201DDA8
:1003A000471B00E00027A1697A1902EB0900081A2F
:1003B000A0612078C00602D42046AFF3008000265A
:1003C00008E0D4E901211AF806009047206A401C91
:1003D000761C20624E45F4DB2078C0060AD5204604
:1003E000AFF3008006E0D4E9012130209047206A75
:1003F000401C2062381EA7F10107F4DC07E0D4E9B5
:10040000012118F805009047206A401C2062281E30
:10041000A5F10105F3DC2046AFF30080207800064B
:1004200002D50220BDE8F0870120FBE701694A1CE4
:1004300002610878704700B58FB0CDE90131002125
:10044000059105497944CDE9031011466846FFF747
:10045000E7FE0FB000BD0000E5FFFFFF0A6802F8ED
:10046000010B0A6070474FF000020429C0F01280AF
:1004700010F0030C3FF44EAFCCF1040CBCF1020FB2
:1004800018BF00F8012BA8BF20F8022BA1EB0C012C
:10049000FFF740BF5FEAC17C24BF00F8012B00F8E2
:1004A000012B48BF00F8012B70470000004870473F
:1004B0005805002000487047580500207546FFF792
:1004C000F9FFAE4605006946534620F00700854611
:1004D00018B020B5FFF76AFEBDE820404FF00006D7
:1004E0004FF000074FF000084FF0000B21F007011C
:1004F000AC46ACE8C009ACE8C009ACE8C009ACE85F
:10050000C0098D46704710B50446AFF30080204601
:10051000BDE81040FFF736BE01491820ABBEFEE72C
:10052000260002007047FEE710B501F04BFE0021E7
:100530000E2001F0B5FE0122324933A001F0BAFFCE
:100540000B21002001F0ACFE01222E4932A001F067
:10055000B1FF1821002001F0A3FE0122344935A08B
:1005600001F0A8FF1821502001F09AFE342100204C
:1005700001F096FE0022234931A001F09BFF3421B7
:10058000072001F08DFE01221E492EA001F092FFEE
:100590003421202001F084FE00221A492AA001F013
:1005A00089FF3421272001F07BFE0122154927A075
:1005B00001F080FF3421452001F072FE0022114934
:1005C00024A001F077FF34214C2001F069FE0122C4
:1005D0000C4921A001F06EFF34215C2001F060FE87
:1005E000002208491DA001F065FF3421632001F0BD
:1005F00057FE012203491AA001F05CFFBDE810403C
:1006000001F06CBF00000020434F46204D65617330
:100610007572616D656E74002D2D2D2D2D2D2D2D76
:100620002D2D2D2D2D2D2D2D2D2D2D2D00000000AE
:100630000800002041564720434F46203D0000005F
:10064000610000003A557000620000003A44574EC5
:1006500000000000630000003A3C0000640000005D
:100660003A456E74000000000348002101604160BB
:1006700081600121C160704718000020704701208F
:1006800000F01ABA022000F017BA042000F014BAE1
:10069000082000F011BA102000F00EBA202000F05F
:1006A0000BBA000006490020C8610648016941F004
:1006B00004010161016941F04001016170470000DE
:1006C0003805002000200240064A0021D161064979
:1006D0000A6942F002020A614861086940F040007C
:1006E000086170473805002000200240044B0022BA
:1006F000DA61044A136943F0010313610180704712
:10070000380500200020024014480022C168CB06B2
:10071000134904D5CA6942F00202CA611022C368B3
:100720005B0705D5CB6943F00103CB6142F00402BE
:10073000C369DB0707D0CB6943F00403CB61C16910
:1007400021F00101C161A2F58071013901D0C260BF
:100750007047C16921F00101C1617047002002406A
:100760003805002070B5054600F0A8FA0646114C81
:1007700009E0681C07D025B100F0A0FA801BA84250
:1007800001D9032070BDE068C007F2D1E06880069F
:1007900001D52020E060E068C00605D4E069C0070C
:1007A00002D1E068400703D5FFF7AEFF012070BD1E
:1007B000002070BD0020024070B586B015460E4680
:1007C000044600F0D1F8311B0020491C890A02942C
:1007D0000090CDE9031004A9684600F027F82A46E6
:1007E00000232146022000F07FF800F073F806B0E5
:1007F00070BD00000348002101220160C0E9011220
:10080000C16070471800002070B5044600F056FA29
:100810000546601C02D004480078044400F04EFAFB
:10082000401BA042FAD370BD740000202DE9F047B0
:10083000054626480F460126017E01290FD00121D9
:10084000814601762868DFF888804CF2503402280F
:1008500008D0A2462046FFF785FFA8B131E002206C
:10086000BDE8F0872046FFF77DFF08BB0120FFF7BA
:1008700019FF2046FFF776FFD8F81010064621F042
:100880000401C8F810101CE04FF0FF303860AC686D
:1008900011E02046FFF718FF5046FFF763FFD8F836
:1008A0001010060021F00201C8F8101001D03C60C1
:1008B00007E004F58064D5E9020100EB8120A04245
:1008C000E7D8002189F818103046C9E7380500201C
:1008D000002002400348016941F0800101610020CD
:1008E00070470000002002402DE9F05F07461C48D9
:1008F00088460024017E15461E46012909D00121A3
:10090000814601764CF2503A5046FFF72BFF18B162
:1009100022E00220BDE8F09F012F02D0022F00D07C
:100920000427D346DFF83CA0220128463146FFF7D2
:100930004FFC81B208EB4400FFF7D8FE5846FFF7A2
:1009400011FFDAF8102022F00102CAF8102018B9BD
:10095000641CE4B2BC42E7D3002289F81820D9E72E
:100960003805002000200240064900200A691206CE
:1009700007D5054A4A60054A4A600969090600D553
:10098000012070470020024023016745AB89EFCD6D
:100990002DE9F047804600F091F9414C01460022D4
:1009A000606301203F4B404D404E414FDFF80491C2
:1009B000B8F1010F21D0B8F1020F2DD0B8F1040F1A
:1009C0004AD0B8F1080F54D0B8F1100F5CD0B8F18C
:1009D000200F3FD1236BC91A64293BD9A26322643B
:1009E0006264C4E912206261606239464846FFF7DA
:1009F000E3FE29463046E26C28E0D4F830C0A1EB93
:100A00000C01642926D9C4E90E0222646264E264FE
:100A1000C4E9040201220DE0D4F830C0A1EB0C01BE
:100A2000642917D9C4E90E2022646264A264C4E96F
:100A3000042000228021184600F03AF9E26C294691
:100A40003046FFF7B9FE39464846A26CFFF7B4FEC0
:100A5000606B2063BDE8F087236BC91A6429F9D95C
:100A6000A263C4E90F206264A264E264226162614D
:100A7000BBE7236BC91A6429ECD9A263E263C4E91A
:100A80001020A264E264B0E7236BC91A6429E1D99B
:100A9000E2632264C4E91120E26422612062CEE7AD
:100AA00018000020000801400FF0000810E80008BE
:100AB0000FF8010810F00108044910B50A68024255
:100AC00002D00860FFF764FF10BD0000140401406D
:100AD0002DE9F84FDFF8B891002409F1040A0AF172
:100AE000040B23460F270BF1040EC9E00125A54096
:100AF0002A40AA427DD1674ED1F804C0ACEB06086B
:100B0000B44532D014DCBCF1030F3AD009DCBCF19F
:100B1000000F2AD0BCF1010F1CD0BCF1020F31D163
:100B20001DE0BCF1110F17D0BCF1120F2AD119E052
:100B3000B8F5881F19D006DCB8F5803F15D0B8F598
:100B4000801F1FD111E0B8F5001F0ED0B8F5041FAB
:100B500018D10AE0CB6815E0CB681B1D12E0CB680A
:100B600008330FE0CB680C330CE08B682BB1012B02
:100B70004FF0080303D0456104E0042302E005615F
:100B800000E00023FF2A01D8064601E000F1040638
:100B90004FEA840501D9A5F12005D6F8008007FAAF
:100BA00005FC28EA0C0803FA05F548EA0508C6F82A
:100BB00000804D68ED0062D5374DAE6946F0010604
:100BC000AE61AD6924F0030605F001050095334DD3
:100BD00006EB050CDCF80850A607360F07FA06F8F6
:100BE00025EA0805DFF8B880404503D14FF000083A
:100BF00017E044E0DFF8AC80404502D14FF0010837
:100C00000FE0DFF8A480404502D14FF0020808E071
:100C1000DFF89880404502D14FF0030801E04FF023
:100C2000040808FA06F848EA0508CCF808804D6878
:100C3000D9F80060ED034D4601D5164300E0964318
:100C40002E604D68DAF80060AD03554601D51643B5
:100C500000E096432E604D68DBF80060ED025D46D3
:100C600001D5164300E096432E604D68DEF8006023
:100C7000AD02754601D5164300E096432E60641C14
:100C80000D682A46E5407FF431AFBDE8F88F0000DB
:100C9000000401400000111000100240000001405B
:100CA00000080140000C0140001001400014014008
:100CB0000AB1016170470904FBE700000148806840
:100CC000704700007400002070B5040025D094F82F
:100CD0003D00002520B984F83C50204600F004FA7D
:100CE000242084F83D002068016821F001010160A2
:100CF0002068016841F4004101602068016821F426
:100D00000041016000F04CFB4D4A6168914201D8FE
:100D10004C4900E04C49884201D2012070BD4B494A
:100D20002368B0FBF1F15E6826F03F060E435E607B
:100D30006368934206D94FF4967359434FF47A731C
:100D4000B1FBF3F12368491C1E6A26F03F063143CC
:100D500019626168914210D84900401EB0FBF1F25F
:100D6000521CC2F30B02042A01D2042022E0B0FB81
:100D7000F1F0401CC0F30B001CE0A268F2B301EBE1
:100D8000C10303EB0116431EB3FBF6F35B1C43F4F4
:100D900080431B0549D092B301EBC10202EB011164
:100DA000401EB0FBF1F0401CC0F30B0040F480404B
:100DB00040F400402168CA694CF6FF739A4310431F
:100DC000C861D4E9071001432068026822F0C0021C
:100DD00011430160D4E9030101432068826848F2AD
:100DE000FF339A4311438160D4E905010843216828
:100DF000CA6822F0FF021043C86001E00EE016E06E
:100E00002068016841F0010101602564202084F818
:100E10003D00256384F83E50002070BD01EB410683
:100E2000431EB3FBF6F35B1CB3E70120C2E701EB03
:100E30004101401EB0FBF1F0401CC0F30B00B7E7CE
:100E4000A086010080841E0000093D0040420F0082
:100E50002DE9FF4F81B089460446FFF72FFF054675
:100E600094F83D004FF0010820287DD1192301227C
:100E700050492046009500F0D7FE002874D194F820
:100E80003C00012870D0012084F83C0020680168F3
:100E9000C90703D1016841F00101016020680168C0
:100EA00021F400610160242084F83D0000262664BE
:100EB0004148E0624FF0011B20272068016841F49F
:100EC000807101600095002259462046049B00F085
:100ED000ABFE50B120680068C00502D54FF4007029
:100EE0002064032005B0BDE8F08F216809F0FE0002
:100EF0000861FFF7E3FE2168054648694969C0F3C8
:100F00004000C1F380214FF0A00A0FE0FFF7D6FEAA
:100F1000411B0498814200D808B984F83DA021689B
:100F200048694969C0F34000C1F3802194F83D202D
:100F3000A02A02D008B90029E8D084F83D702068C2
:100F40004169C943890716D4016841F40071016001
:100F500020684169806919230122164920460095BD
:100F600000F062FEB8B900E021E084F83D7084F83A
:100F70003C600020B6E7016841F40071016021681F
:100F80006FF480604861192301220A4920460095C8
:100F900000F04AFE08B10120A4E7039808F1010817
:100FA00080458AD384F83D7084F83C60F3E70220E2
:100FB00098E70000020010000000FFFF2DE9F84F45
:100FC0001F4690468A460446DDF82890FFF776FED5
:100FD000054694F83D0020287FD11923012240497D
:100FE0002046009500F020FE002876D194F83C00C1
:100FF000012872D0012084F83C0020680168C907EC
:1010000003D1016841F0010101602068016821F409
:1010100000610160212084F83D00102084F83E002A
:1010200000262664C4F824806785608D20852D48BD
:10103000E0622B464A465146204600F081FD90B9B9
:10104000206841698069009036E02A46494620467A
:1010500000F069FE50B1206C042804D120680168BA
:1010600041F4007101600120BDE8F88F606A2168D9
:1010700000780861606A401C6062618D491E61856C
:10108000218D491E89B2218522685369DB435B07A4
:101090000BD451B100781061606A401C6062608DB1
:1010A000401E6085208D401E20852A4649462046E8
:1010B00000F094FD0028CED1208D0028C5D154F831
:1010C0003D0B016841F400710160202004F81E0905
:1010D000E67766770020C7E7FFE70220C4E7000055
:1010E000020010000000FFFF10B586B00021009143
:1010F00001910291039100680F4988421AD10F4C67
:10110000A06940F00800A061A069694600F00800ED
:101110000490C02000901220019003200390084802
:10112000FFF7D6FCE06940F40010E061E06900F4EC
:101130000010049006B010BD0054004000100240A2
:10114000000C0140024881680278114481607047B8
:1011500074000020074810B5016841F010010160DB
:10116000032000F075F8002000F006F800F024F8E5
:10117000002010BD0020024070B50D4D04464FF414
:101180007A712878B1FBF0F00A490968B1FBF0F0F8
:1011900000F0DCFA48B9102C07D200222146501E7C
:1011A00000F036F800206C6070BD012070BD0000BA
:1011B00074000020800000200C4808B5816941F0CF
:1011C00001018161816901F001010091C16941F072
:1011D0008051C161C06900F08050009004484168AE
:1011E00021F0E06141F00071416008BD0010024053
:1011F00000000140002809DB00F01F02012191409E
:101200004009800000F1E020C0F8001170470000A4
:10121000F0B40E4B1B680C46C3F30223C3F1070561
:10122000042D00D90425191D072901D2002300E04F
:10123000DB1E012606FA05F1491E214099409E4019
:10124000761E16403143F0BC01F0E0BA0CED00E030
:10125000064900F0070208684FF6FF03184040EA0D
:101260000220034A10430860704700000CED00E0C4
:101270000000FA052DE9F0470F46050061D0434E06
:10128000306800F00700B84209D2306820F007004B
:1012900038433060306800F00700B84251D1286808
:1012A0003B4C810712D5400703D5606840F4E060ED
:1012B00060602878000703D5606840F46050606083
:1012C0006068A96820F0F000084360602878C007D3
:1012D00028D06868012810D02168022810D089071A
:1012E00000292EDA616821F0030101436160FFF7F4
:1012F000E5FC804641F288390DE021688903EFE77B
:101300008901EDE7FFF7DAFCA0EB0801494502D9B6
:101310000320BDE8F0876068696800F00C00B0EB5E
:10132000810FEFD1306800F00700B8420BD9306868
:1013300020F0070038433060306800F00700B84202
:1013400001D00120E5E72878400705D56068E96805
:1013500020F4E060084360602878000706D56068E4
:10136000296920F4605040EAC100606000F028F86C
:101370006168084AC1F30311515CC840064908601E
:1013800006480068FFF7F8FE0020C2E70020024090
:10139000001002409E5000088000002078000020CD
:1013A0000448054900684968044AC1F30221515CB8
:1013B000C84070478000002000100240AE50000876
:1013C00012A185B00FC98DE80F0014A0144A00685F
:1013D00004905168134801F00C03042B10D0082B23
:1013E0000ED1C1F38343C9031DF803000AD5516828
:1013F00004AAC1F34041515C0A4A5043B0FBF1F0EA
:1014000005B0704708494843FAE7000002030405A5
:10141000060708090A0B0C0D0E0F10100102000040
:101420000010024000127A0000093D002DE9F84F3B
:10143000040070D02078C04DC00749D06868C0F360
:101440008100012807D06868C0F38100022809D113
:101450006868C00306D52868800339D5606800280D
:10146000E7D035E06068B0F5803F0BD010B1B0F543
:10147000A02F11D0286820F480302860286820F43C
:10148000802002E0286840F480302860606890B1D5
:10149000FFF714FC06460AE0286840F48020286024
:1014A000F0E700BFFFF70AFC801B642873D82868A8
:1014B0008003F7D50CE0FFF701FC064605E000BF0E
:1014C000FFF7FCFB801B6428F0D828688003F7D462
:1014D00020789A4E80074FF001094FF0000839D567
:1014E000686810F00C0F07D06868C0F3810002280C
:1014F00009D16868C00306D42868800714D520691C
:10150000012808D110E02069B0B1C6F80090FFF7BB
:10151000D5FB074605E00AE1FFF7D0FBC01B022818
:10152000C4D828688007F7D52868616920F0F800DA
:1015300040EAC10028600DE0C6F80080FFF7BEFB5E
:10154000074604E0FFF7BAFBC01B022823D828682F
:101550008007F7D4207800072CD57948A169D9B144
:10156000C0F80090FFF7AAFB074604E0FFF7A6FBD0
:10157000C01B02280FD8686A8007F7D571484FF45E
:10158000FA510068B0FBF1F0009000BF0098411ED6
:101590000091FAD20EE080E0C0F80080FFF78EFBE9
:1015A000074604E0FFF78AFBC01B022875D8686A6B
:1015B0008007F7D42078400760D5E8690027C0008D
:1015C00008D4E86940F08050E861E869012700F03C
:1015D000805000905C480168C90513D401688346B7
:1015E00041F480710160FFF769FB824606E000BFAD
:1015F000FFF764FBA0EB0A0064284ED8DBF800007C
:10160000C005F5D5E06801280AD008B1052813D037
:10161000286A20F001002862286A20F0040002E015
:10162000286A40F001002862E06841F2883B98B1E6
:10163000FFF744FB82460BE0286A40F00400286272
:10164000EEE700BFFFF73AFBA0EB0A0159455AD875
:10165000286A8007F6D50CE0FFF730FB824605E0EC
:10166000FFF72CFBA0EB0A0159454CD8286A8007EC
:10167000F6D41FB1E86920F08050E861E06988B3D2
:101680006968C1F38101022944D00228C6F860804C
:1016900004D0FFF713FB044638E034E0FFF70EFBFD
:1016A000074604E0FFF70AFBC01B02282BD8286876
:1016B0008001F7D4206AB0F5803F05D16868A16841
:1016C00020F4003008436860D4E9080108436968E1
:1016D00021F4741108436860C6F86090FFF7EEFAD1
:1016E000044606E025E000BFFFF7E8FA001B0228E9
:1016F00009D828688001F7D51BE000BFFFF7DEFAA4
:10170000001B022802D90320BDE8F88F2868800159
:10171000F4D40EE00128F7D06868226A00F4803122
:10172000914204D1616A00F47010884201D0012016
:10173000EAE70020E8E70000001002400000424213
:1017400080044242800000200070004010B5401E1E
:10175000B0F1807F01D3012010BD4FF0E024606123
:101760000F21601701F052F80020A06107202061CE
:10177000002010BD7047704770B590F83C20012ADA
:1017800026D0012480F83C40022280F83D200368E6
:101790005A689D6822F070060A6832435A600D4B01
:1017A00002689A4208D0B2F1804F05D00A4B9A42A3
:1017B00002D00A4B9A4204D1496825F080031943AC
:1017C000916080F83D40002180F83C10084670BDD3
:1017D000022070BD002C01400004004000080040C1
:1017E00010B5040003D094F83D0010B107E00120CB
:1017F00010BD002084F83C00204600F01FF80220B5
:1018000084F83D00211D206800F094FF012084F839
:10181000460084F83E0084F83F0084F8400084F8D5
:10182000410084F8420084F8430084F8440084F8BE
:10183000450084F83D00002010BD000008B5006898
:101840000B49884212D10B48816941F400618161E2
:101850008069002200F40060009001211B20FFF746
:10186000D7FCBDE808401B20FFF7C4BC08BD000042
:10187000002C01400010024090F83D10012901D0D9
:1018800001207047022180F83D1000680B49884212
:1018900008D0B0F1804F05D00949884202D00949EB
:1018A000884204D1816801F00701062903D001684C
:1018B00041F001010160002070470000002C014050
:1018C000000400400008004070B5044690F83C0059
:1018D000012817D0012584F83C50022084F83D00EF
:1018E0002068826822F0770222F47F4282600868D2
:1018F000502830D00DDC20284DD005DC98B31028BE
:101900003BD148E0022070BD302844D0402834D17B
:1019100039E0602828D0702806D0B0F5805F2CD040
:10192000B0F5005F29D10AE0CB68D1E90121206838
:1019300000F036FF2068816841F0770109E0CB684C
:10194000D1E90121206800F02BFF2068816841F473
:101950008041816011E0CA684968206800F032FF68
:101960005021206807E016E0CA684968206800F046
:101970003AFF6021206800F01DFF84F83D500020F0
:1019800084F83C0070BDCA684968206800F01AFFFE
:1019900040212068EFE7226801461046EBE77047D8
:1019A00070B50446006801694FF00005C943890716
:1019B00015D4C168C943890711D4E91E016101200A
:1019C0002077206880698007204602D0FFF7E7FF74
:1019D00004E000F098F8204600F096F8257720689B
:1019E0000169C943490717D4C168C943490713D4DA
:1019F0006FF004010161022020772068806910F4F3
:101A0000407F204602D0FFF7CAFF04E000F07BF8D9
:101A1000204600F079F8257720680169C943090755
:101A200016D4C168C943090712D46FF008010161D7
:101A3000042020772068C0698007204602D0FFF785
:101A4000AEFF04E000F05FF8204600F05DF8257777
:101A500020680169C943C90617D4C168C943C906CA
:101A600013D46FF010010161082020772068C0694D
:101A700010F4407F204602D0FFF791FF04E000F011
:101A800042F8204600F040F8257720680169C943F4
:101A9000C90708D1C168C943C90704D1891E0161BA
:101AA000204600F032F820680169C943090609D4CC
:101AB000C168C943090605D46FF080010161204661
:101AC000FFF758FE20680169C943490609D4C16877
:101AD000C943490605D46FF040010161204600F07A
:101AE00015F820680169C94389060BD4C168C94348
:101AF000890607D46FF0200101612046BDE87040DF
:101B0000FFF739BE70BD7047704770477047FEE7FA
:101B100001684A69D24352050FD46FF480624A616A
:101B2000002140F8301F202242738173026942F085
:101B30000402026101730120704700207047000019
:101B4000F8B50446C06A1E460D461746082807D059
:101B5000012805D010F5803F02D0206B122804D157
:101B60002068016841F480710160134600224FF043
:101B700001112046009600F057F840B12068006837
:101B8000C00502D54FF4007020640320F8BD206921
:101B9000B0F5804F0ED00620216800EAD51040F045
:101BA000F000086133463A460B49204600F070F8D1
:101BB00078B902E005F0FE0000E0E8B221680861B3
:101BC000054933463A46891F204600F061F800284F
:101BD000DCD00120F8BD00000800010070B51646F9
:101BE0000D4604460DE02046FFF792FF08B10120A4
:101BF00070BD681C05D0FFF761F8801BA84207D8AC
:101C000035B120684069C0434007ECD4002070BD66
:101C1000002044F8300F20216173A073216941F046
:101C2000200121612073E2E72DE9F0471E4690462E
:101C30000D460446C1F30747DDF8209008E0701C0C
:101C400006D0FFF73BF8A0EB0900B0420FD876B101
:101C50002068012F18D0806925EA00000004000CDC
:101C600014D000214145EAD00020BDE8F0870020D3
:101C700044F8300F20216173A073216941F02001E5
:101C8000216120730120F0E74069E5E70121E9E7E0
:101C90002DE9F0479A4691460E46044600254FF03E
:101CA0002008C1F3074725E020684069C04340058C
:101CB00014D42068016841F40071016021686FF458
:101CC00080604861256384F83D8084F83E50206C34
:101CD00040F00400206484F83C501FE0B9F1FF3F5D
:101CE00008D0FEF7EBFFA0EB0A0149450CD8B9F18B
:101CF000000F09D02068012F13D0806926EA000068
:101D00000004000C0BD0CFE744F8305F84F80D805E
:101D1000A573206940F02000206125730120BDE8F3
:101D2000F0874069EAE770B516460D4604460DE0B7
:101D30002046FFF7EDFE08B1012070BD681C05D0FC
:101D4000FEF7BCFF801BA84207D835B12068406968
:101D5000C0430006ECD4002070BD002044F8300FD2
:101D600020216173A073216941F02001216120735A
:101D7000E2E700002DE9F04186B0002548480095D3
:101D8000019502950395816941F010018161816996
:101D900001F010010491816941F0200181618169A4
:101DA00001F020010491816941F0040181618169A0
:101DB00001F004010491816941F0080181618069A9
:101DC000384F00F008004FF4C04404900022214630
:101DD0003846FEF76DFFDFF8D0800022C021404674
:101DE000FEF766FF009401AA0124032682E8700032
:101DF00069463846FEF76CFE2C4F0E20CDE90007F1
:101E0000694602944046FEF763FE30200090284861
:101E100001900220029069464046FEF759FEC0201C
:101E20008DE8710069464046FEF752FECDE9004755
:101E3000694620480294FEF74BFE0022032106204B
:101E4000FFF7E6F90620FFF7D5F900220321072066
:101E5000FFF7DEF90720FFF7CDF900221146082031
:101E6000FFF7D6F90820FFF7C5F900220221092063
:101E7000FFF7CEF90920FFF7BDF9002202210A2061
:101E8000FFF7C6F90A20FFF7B5F900220221172053
:101E9000FFF7BEF91720FFF7ADF906B0BDE8F081F6
:101EA0000010024000100140000801400000211015
:101EB00000001110000C014010B586B00024184835
:101EC00000940194029403940494144905940160CD
:101ED0004721C0E901144FF6FE71C0E903148021C7
:101EE000C0E90541FFF77CFC08B172B6FEE74FF48C
:101EF0008050009069460A48FFF7E6FC08B172B6C8
:101F0000FEE7049404A906480594FFF735FC002871
:101F100001D072B6FEE706B010BD0000002C0140F3
:101F2000D8040020034800210122C0E9001281608A
:101F3000C160704718000020FEE700002DE9F0475F
:101F40008B4C01260025606888B300F0F9FDC4E9D8
:101F50000665C820FEF758FC3CE0A06B58B1E0696C
:101F600030B10121002000F09DFEC4E906651BE0B0
:101F7000A0690028F5D1E06B58B1E06930B10021CB
:101F8000012000F08FFEC4E906560DE0A06900288C
:101F9000F5D1606C60B1A06910B1FEF72BFC03E0D5
:101FA000E06928B1FEF760FB00F030FF12E014E0BA
:101FB000206C78B100F0DCFC00F028FF206A10B142
:101FC000A664256206E0606A10B1E664656201E01D
:101FD000A564E56460680028BFD12068002878D037
:101FE00000F04CFC6420FEF70FFC624FDFF88881A4
:101FF000DFF88891DFF888A168E0606C18B120698B
:1020000008B9606968B1A06BA8B16562A563E563B2
:1020100025646564E564E06A01F082FC00F00CFC74
:1020200006E0FFF77FFF00F0F1FE4FE000F0AEF8B2
:10203000206990B3FAE7E06B78B12562E563256427
:102040006564A564E06A01F06BFC00F0F5FB01E05B
:1020500000F09CF8606900B3FAE7206CF0B12561EC
:10206000656100F0D3FEA564E564206A28B1A6642A
:1020700032463946404625620DE0606A18B1E66492
:102080003246656205E02A4639464046FEF794FB33
:10209000E26C49465046FEF78FFB17E0A06C50B14A
:1020A00065642662E5643220256100F06BFCA06C5B
:1020B0000028F8D10AE0E06C40B166626564322025
:1020C000656100F05FFCE06C0028F8D12068002812
:1020D00093D1A068B8B300F027FA6420FEF794FB10
:1020E000244F6425274E7F1C2AE0206C18B1FFF78F
:1020F00019FF00F08BFEA06BA0B1E06AB0F57A6F1B
:1021000001DA643014E090FBF5F001F009FC206581
:1021100000F086FE31463846E26AFEF74DFB00F0DD
:1021200003FA0BE0E06B28B1E06AC828EBDD643805
:10213000E062E8E7606C18B1FFF7F4FE00F066FEBD
:10214000A0680028D1D1E06800280ED0FEF7ECF995
:102150006420FEF759FB05E0206C18B1FFF7E2FEA2
:1021600000F054FEE0680028F6D1BDE8F0870000DA
:10217000180000200FF8010810F001080FF0000807
:1021800010E80008FFFF0108FEE7704770B50B4D2F
:10219000012240212846FEF78BFD094C208D80B29C
:1021A00000F0F0FB002240212846FEF781FD208D43
:1021B000BDE8704080B200F0E5BB000000080140BF
:1021C0001800002010B5002000F05EF8BDE81040B7
:1021D00000F084B92DE9FF4F83468946D81DC11709
:1021E00000EB517000271D464FEAE00A3E46DDF83D
:1021F000348024E000241AE0600702D07806070E3D
:1022000008E0E01704EB5071029800EBE10106FBD7
:102210000A100778380608D50E981FFA89F1C2B25D
:102220000BEB040080B200F00FF8641C24B2AC4247
:10223000E2DB761C09F1010036B20FFA80F946455F
:10224000D8DBBDE8FF8F000070B5802813D240298D
:1022500011D20B4B012401F007051E79AC40094B4C
:10226000C90800EBC1100EB132B101E0012A03D060
:10227000195CA143195470BD195C2143FAE70000B1
:10228000100000208400002028B1FF224FF480615C
:102290000248FEF735B80022F8E70000840000206D
:1022A000014A1080518070471000002010B500F0E6
:1022B000D1FD44F62063012278215448FEF7C8FD81
:1022C00008B1002010BD40F6C210401EFDD1AE2264
:1022D0000021782000F0C4FD20220021782000F0A9
:1022E000BFFD10220021782000F0BAFDB0220021AD
:1022F000782000F0B5FDC8220021782000F0B0FD64
:1023000000221146782000F0ABFD10220021782039
:1023100000F0A6FD40220021782000F0A1FD8122DE
:102320000021782000F09CFDFF220021782000F0A1
:1023300097FDA1220021782000F092FDA622002125
:10234000782000F08DFDA8220021782000F088FD83
:102350003F220021782000F083FDA4220021782074
:1023600000F07EFDD3220021782000F079FD0022CC
:102370001146782000F074FDD5220021782000F06D
:102380006FFDF0220021782000F06AFDD9220021A3
:10239000782000F065FD22220021782000F060FD09
:1023A000DA220021782000F05BFD12220021782043
:1023B00000F056FDDB220021782000F051FD2022A4
:1023C0000021782000F04CFD8D220021782000F0C3
:1023D00047FD14220021782000F042FDAF220021A9
:1023E000782000F03DFD2E220021782000F038FDFD
:1023F0000020FFF749FF00F071F805480021018037
:10240000418001214171084610BD00008404002074
:10241000100000202DE9F047814625480D469246E0
:1024200001882A781144802905D28046408869783D
:102430000844402802D30020BDE8F08700262AE0A7
:10244000A9F1200101FB00606A68002432F81070D5
:102450001DE000BF07FA04F0000409D5B8F8021027
:10246000B8F800003144204489B280B252460BE0F3
:10247000BAF1000F1AD00022B8F80210B8F8000024
:102480003144204489B280B2FFF7DEFE641C287814
:10249000A042DFD8761C6878B042D1D8B8F80010D6
:1024A0002A7848461144A8F80010C5E70122E3E75E
:1024B0001000002070B515460E46044609E02A4675
:1024C0003146FFF7A7FF2178884201D0C8B270BD1E
:1024D000641C20780028F2D1C0B270BD70B5104DD8
:1024E000002400BF04F1B000C2B20021782000F047
:1024F000B7FC00221146782000F0B2FC1022002127
:10250000782000F0ADFC05EBC41280234021782038
:1025100000F0B6FC641CE4B2082CE3D370BD0000EC
:10252000840000207047000010B5FFF74BFE00212B
:102530000E20FFF7B5FE0122464947A0FFF7BAFF7C
:102540000B210020FFF7ACFE0122424947A0FFF714
:10255000B1FF18210020FFF7A3FE012249494AA03C
:10256000FFF7A8FF494C206D00F05AFC18211720F6
:10257000FFF796FE46A14748626DFDF73DFE01223A
:1025800040494448FFF796FF18212E20FFF788FEA8
:1025900001223C4940A0FFF78DFF18213920FFF7A9
:1025A0007FFE3C483AA10A30A26DFDF725FE39486E
:1025B000012234490A30FFF77DFF34210020FFF764
:1025C0006FFE0022234935A0FFF774FF3421072056
:1025D000FFF766FE01221F4931A0FFF76BFF342190
:1025E0002020FFF75DFE00221A492EA0FFF762FFB0
:1025F00034212720FFF754FE012216492AA0FFF7B5
:1026000059FF34214520FFF74BFE0022114928A035
:10261000FFF750FF34214C20FFF742FE01220D4905
:1026200024A0FFF747FF34215C20FFF739FE00228A
:10263000084921A0FFF73EFF34216320FFF730FE59
:10264000012204491DA0FFF735FFBDE81040FFF748
:1026500045BF000000000020535045454420414440
:102660004A5553544D454E54000000002D2D2D2D3C
:102670002D2D2D2D2D2D2D2D2D2D2D2D2D2D2D2D8A
:102680000000000008000020563D00001800002057
:1026900025640000200500202E00000061000000DD
:1026A0003A557000620000003A44574E00000000A6
:1026B000630000003A3C0000640000003A456E747C
:1026C00000000000FEF73EBD30B58FB028216846FF
:1026D000FDF71EFE14210AA8FDF71AFE01210804C9
:1026E000CDE900100024029402250491CDE90750A1
:1026F0004FF4E01009906846FEF798FE08B172B6F4
:10270000FEE70F20CDE90A054FF48060CDE90C40CB
:1027100002210AA80E94FEF7ADFD002801D072B682
:10272000FEE70FB030BD70470148FFF739B9000030
:10273000D8040020F0B50268164B174C174D4FF027
:102740008047984205D0B84203D0A04201D0A842A9
:1027500003D122F070064A683243984205D0B8424D
:1027600003D0A04201D0A84203D122F44074CA6829
:1027700022434C6922F08002224302608A68C262CE
:102780000A688262984201D10969016301214161AD
:10279000F0BD0000002C0140000400400008004093
:1027A00010B5846842EA032224F47F440A4322439A
:1027B000826010BD826822F070020A4342F0070175
:1027C0008160704710B5036A046A24F00104046252
:1027D000846924F0F00444EA021423F00A020A4354
:1027E0008461026210BD10B5036A23F01003036216
:1027F0008369046A23F4704343EA023224F0A0039D
:1028000043EA01118261016210BDFEE70907090E6A
:10281000002804DB00F1E02080F80014704700F08D
:102820000F0000F1E02080F8141D704700221346CD
:102830001046114600F0F0BB10B500F067FF002213
:102840000A4B00F0E9FB02460B460020084900F065
:10285000E3FB0022074B00F0DFFB4FF0FF3201F0FB
:10286000F4F800F031FD0449886210BD389C8C41B9
:10287000000014400040AF401800002010B5FFF7E2
:10288000A1FC00210E20FFF70BFD01221A491BA01D
:10289000FFF710FE09210020FFF702FD0122164973
:1028A0001AA0FFF707FE15210020FFF7F9FC01220F
:1028B00011491CA0FFF7FEFD1F210020FFF7F0FCCF
:1028C00001220D491CA0FFF7F5FD29210020FFF78B
:1028D000E7FC012208491DA0FFF7ECFD3321002091
:1028E000FFF7DEFC012204491CA0FFF7E3FDBDE871
:1028F0001040FFF7F3BD000000000020434F41549B
:10290000494E47202D20434F460000002D2D2D2DF0
:102910002D2D2D2D2D2D2D2D2D2D2D2D2D2D2D2DE7
:1029200000000000436C69636B20413A2052756ED1
:102930002046574400000000436C69636B20423A14
:102940002052756E2042574400000000436C6963BA
:102950006B20433A2053746F70000000436C69632E
:102960006B20443A204F70656E204D656E750000F7
:10297000034801210160002141608160C16070470E
:1029800018000020044900220B685A6209684A6A4C
:102990008242FCD370470000D804002070B5144672
:1029A0001D460E46002814BF01210021314321F0AD
:1029B0000041C1F17F6101F1E041C90F16D1002C46
:1029C00014BF01210021294321F00041C1F17F61A1
:1029D00001F1E041C90F09D11449B1EB460F08BF1D
:1029E00000281CD0690008BF002C18D0314600F028
:1029F000E9FC024640F2FF7030EA11500DD0F017AA
:102A0000B0EBE17F09D0084665F31E0084460B4613
:102A10002046614600F084FD0246104670BD01204C
:102A2000FDF7A5FCBDE87040FFF700BF0000E0FF28
:102A30001CB5FEF78FFBFFF747FEFFF79BF9314808
:102A40002F494FF4804201602F494160002181608D
:102A5000C0E9031241618161C1610162FEF734F98D
:102A600008B172B6FEE7FFF727FA26485430FEF7A2
:102A700003FFFFF71BFCFFF7A5FB01212020CDE999
:102A800000013C23214A04212220FFF7A3FB262139
:102A90001920FFF705FC01221D491EA0FFF70AFDC2
:102AA00034210820FFF7FCFB012219491CA0FFF785
:102AB00001FDFFF713FD1E4800681E4C4FF47A75A8
:102AC000A0642846FDF7A0FE1B4801682846E16483
:102AD000FDF79AFE194800686421E06290FBF1F06E
:102AE00000F01EFF206500F09BF90021012000F09E
:102AF000D9F8FFF73DFF00BFFFF720FAFCE7000021
:102B00000054004084040020801A06009E4F0008F4
:102B100000000020466F726D756C6174696E67000D
:102B20004120477265656E657220576F726C640054
:102B300010F001081800002010E8000810F8010843
:102B400010B5FFF73FFB00210E20FFF7A9FB012284
:102B5000354936A0FFF7AEFC09210020FFF7A0FBA6
:102B60000122314935A0FFF7A5FC14210020FFF711
:102B700097FB00222C4937A0FFF79CFC2021002066
:102B8000FFF78EFB0122284937A0FFF793FC342181
:102B90000020FFF785FB0022234938A0FFF78AFCBD
:102BA00034210720FFF77CFB01221F4934A0FFF7E7
:102BB00081FC34212020FFF773FB00221A4931A049
:102BC000FFF778FC34212720FFF76AFB0122164922
:102BD0002DA0FFF76FFC34214520FFF761FB002299
:102BE00011492BA0FFF766FC34214C20FFF758FB5E
:102BF00001220D4927A0FFF75DFC34215C20FFF77F
:102C00004FFB0022084924A0FFF754FC3421632025
:102C1000FFF746FB0122044920A0FFF74BFCBDE86B
:102C20001040FFF75BBC000000000020434F415400
:102C3000494E47202D20434F460000002D2D2D2DBD
:102C40002D2D2D2D2D2D2D2D2D2D2D2D2D2D2D2DB4
:102C50000000000053706565642061646A757374D8
:102C60006D656E7400000000434F46204D65617332
:102C7000756172616D656E74000000006100000096
:102C80003A557000620000003A44574E00000000C0
:102C9000630000003A3C0000640000003A456E7496
:102CA0000000000070B50C460546FFF78BFA0021C6
:102CB0000E20FFF7F5FA0122354936A0FFF7FAFB9F
:102CC00009210020FFF7ECFA0122314935A0FFF776
:102CD000F1FB14210020FFF7E3FAEAB22C4937A0F8
:102CE000FFF7E8FB20210020FFF7DAFAE2B22849DB
:102CF00037A0FFF7DFFB34210020FFF7D1FA0022D5
:102D0000234938A0FFF7D6FB34210720FFF7C8FA84
:102D100001221F4934A0FFF7CDFB34212020FFF70B
:102D2000BFFA00221A4931A0FFF7C4FB3421272043
:102D3000FFF7B6FA012216492DA0FFF7BBFB34219D
:102D40004520FFF7ADFA002211492BA0FFF7B2FB97
:102D500034214C20FFF7A4FA01220D4927A0FFF7E8
:102D6000A9FB34215C20FFF79BFA0022084924A02C
:102D7000FFF7A0FB34216320FFF792FA01220449F8
:102D800020A0FFF797FBBDE87040FFF7A7BB00004E
:102D900000000020434F4154494E47202D20434F0F
:102DA000460000002D2D2D2D2D2D2D2D2D2D2D2DC1
:102DB0002D2D2D2D2D2D2D2D00000000537065651E
:102DC000642061646A7573746D656E740000000040
:102DD000434F46204D656173756172616D656E7418
:102DE00000000000610000003A5570006200000021
:102DF0003A44574E00000000630000003A3C0000D7
:102E0000640000003A456E74000000000348002191
:102E10008163C163016441647047000018000020B1
:102E200070B50546084900F09DFC00F05DFD074CBB
:102E30006065284600F06AFC0022054BFFF7AEFDF6
:102E400000F042FAA06570BD00002041180000208B
:102E5000000024400148401EFDD1704790D003007F
:102E60001CB502238DF804100A2100918DF805206D
:102E7000014601AA0148FEF7A1F81CBD8404002008
:102E800070B5C2B000248DF8041001A904E0155DEE
:102E90000E19641C7570E4B29C42F8D30A210091AB
:102EA0005B1C01469BB201AA0248FEF787F842B0BC
:102EB00070BD00008404002010B591EA030F48BFE4
:102EC00083F0004300F14083841A71EB030C05D2B8
:102ED000121943EB0C03001B61EB0C01DFF824E13A
:102EE0004FEA1154A4EB135C1EEA430F18BF9EEA8D
:102EF000445F73D023EA0E03DCF1200E21EA045173
:102F000043F4801332D322FA0CFE10EB0E0023FAA6
:102F10000CFE41EB0E01CCF1200E03FA0EFE10EB7D
:102F20000E0051F10001B1F5801FCCF1200E32D21C
:102F300001EB045112FA0EF2BDE8104058BF704781
:102F4000401C38BF5FEA420218BF7047002814BF18
:102F500020F0010041F100014FEA410313F5001F89
:102F600038BF7047A1F1C04100F0D4BA012A43EB49
:102F70000302ACF1200CDCF11F0E32BF4FF0000E4B
:102F800023FA0CF310EB030041EB0451B4EB115F97
:102F9000D0D0A1EB045101F5801149085FEA30005F
:102FA00001EB04510ED350F1000038BF12FA0EFEAF
:102FB00008D1BDE81040C9E7401C38BF5FEA4202B3
:102FC000CAD1C3E7BDE810404FEA410313F5001F23
:102FD00038BF7047A1F1C04100F09CBA9EEA445F3F
:102FE00008D011EA5E0FBDE8104004BF01F00041B7
:102FF00000207047BDE8104070B500F094F900BFA4
:1030000064FBBE3E0000E0FF02494FF0000000F00C
:10301000EABC00BF0000F87F2DE9C04130B4DFF802
:10302000A0C23CEA111418BF3CEA131400F0EC8073
:1030300081EA03051CEA111444EAD57418BF1CEA9E
:10304000131500F0C780A4EB05044FF0004545EAD6
:10305000C12145EAC32341EA505143EA525304F1E6
:103060007F74994204F500344FEAC0204FEAC2222F
:1030700008BF904200F09C804FEA13650FF24016A3
:10308000765D4FEA134506FB05F7C7F1807706FB2F
:1030900007F74FEAD737A7FB03687642C8F58038B1
:1030A000A7FB06CE38BFA8F1010807FB08E64FF0E2
:1030B000000EA6FB028CE6FB03CEDCF1000CCEF189
:1030C000004E38BFAEF1010EA6FB0C584FF00007C2
:1030D0004FF00005E6FB0E87A1FB08C6A0FB07CE5C
:1030E00016EB0E0645F10005E1FB076515F1E04E14
:1030F0007EBFA4F580345FEA46066D4116F1800775
:1031000045F100054FEA17274FEA066647EA0567CB
:10311000A6F1DE46B6F1805F4FEA15251FD9384685
:1031200024F0010C05EBC471BCF1FE6F01EB0C1136
:1031300002D8F0BCBDE8008124425CBF01F5801ECE
:103140009EEAC47F02D4F0BCBDE80081244238D49A
:10315000F0BCA1F1C041BDE8004100F0DBB94FEA8D
:10316000D22242EA43524FEAD323A7FB02864FEA18
:10317000D02040EA415007FB03661EEA0E0F4FEADB
:10318000D12105FB026658BFA6EB0056B6EB0056F0
:103190004FEA520E4EEAC37E18EB0E0E56EB530E5C
:1031A000BDD518EB02085E417F1C55F10005B6E75E
:1031B0004FF480154FF000074FF000064FF0000865
:1031C000ADE7F0BC4FF0000001F1C04101F000415B
:1031D000BDE8008111EA0C1F0CEA131500D00CE0C9
:1031E00013EA0C1F00F025804FF00000F0BC81EACC
:1031F000030101F00041BDE80081F0BCBDE80041E1
:1032000081EA030100F086B9F0BCBDE8004170B569
:1032100000F089F8097EFC3E00F007B881EA03015E
:103220004FF0000001F00041704781EA030100F017
:1032300071B9F0BCBDE800414FF000002149704772
:10324000FFFDFBF9F7F5F4F2F0EEEDEBE9E8E6E46B
:10325000E3E1E0DEDDDBDAD8D7D5D4D3D1D0CFCDF2
:10326000CCCBCAC8C7C6C5C4C2C1C0BFBEBDBCBB2B
:10327000BAB9B8B7B6B5B4B3B2B1B0AFAEADACAB26
:10328000AAA9A8A8A7A6A5A4A3A3A2A1A09F9F9E00
:103290009D9C9C9B9A9999989797969595949393B2
:1032A000929191908F8F8E8E8D8C8C8B8B8A898949
:1032B00088888787868585848483838282818180CC
:1032C0000000FF070000F87F4FEA41034FEA535325
:1032D000A3F58063D3F11E03C8BFD3F1210C0CDD2D
:1032E0004FF0004242EAC12242EA505232FA03FC55
:1032F0008CEAE17CACEBE1707047102BC4BF00207E
:10330000704703F5787CBCF1FF3F04D06FF00042BA
:1033100082EA2100704770B500F005F849922480D8
:1033200000207047F2E70EF1020E2EF0030E5EF859
:10333000046B364205D4012A43EB030515F5001F43
:1033400012D8012841EB010C1CF5001F0CD80ED13E
:103350004FEAD17C15F5001F0CEB4C0C0CF1020C64
:1033600008BF4CEBD37C04E04FF0080C01E04FEABF
:10337000D37C0CEB4C0526FA05F606F00706B6F1F1
:10338000040C06D20EEB860CBDE870404CF0010C2C
:103390006047DFE80CF0090B02024FF000414FF0EC
:1033A0000000A1F5002170BD19461046012851EB1F
:1033B000010418BFD4F5001484BF002001F00041BF
:1033C00070BD0000DFF844C170B53CEA111418BFAD
:1033D0003CEA131500F08F8011F1004F1CEA131521
:1033E0000CEA111468BF45F0050518BF11EA0C1F5F
:1033F00000F079802E4621EA4C1123EA4C1341F467
:10340000801143F48013A5F58035AC423DDD801A70
:103410009941A4F5803609D54042C1F1000134BF7D
:10342000B1F10101B1F1000185F0010511F4F01FC6
:1034300008D011F4801FE8D1400041EB0101A4F550
:103440008034F6E721F00041B1FA81F6202E04BF66
:10345000B0FA80FE0EF12006A6F10B06B6F1200EA2
:10346000A4EB06440CD2C6F1200E01FA06F120FAB4
:103470000EF641EA0601CEF1200600FA06F003E05E
:1034800000FA0EF14FF00000BFE750EA410E23D0E2
:103490004FEA244EBEEB254F0FDB994208BF904206
:1034A00004D00AD3520043EB0303B0E74FEA1646B9
:1034B000B6EB144F08BF85F00105B4F5803401EB7D
:1034C000041181EAC57100DB70BD01F1C0414FF00C
:1034D000000001F0004170BD4FEA45714FF000005F
:1034E00001F0004170BD1CEA131F09D04FF000002D
:1034F00001F0004170BDFFF716FF00BFEDFFFF3E7A
:10350000BDE870404FF00000014970470000FF0720
:103510000000F87F0808A0F500114FEA310170475C
:1035200091EA030F10B581F000413FF5CDAC83F077
:10353000004300F009B8000010B591EA030F48BF3E
:1035400083F000433FF5C0AC841A71EB030C07D243
:1035500012198CF0004C43EB0C03001B61EB0C01C7
:10356000DFF8A4E14FEA1154A4EB135C1EEA430F09
:1035700018BF9EEA445F00F0B08023EA6E03524217
:1035800021EA0451C3EB6E0338BF5B1EDCF1200E51
:1035900025D322FA0CFE10EB0E0043FA0CFE41EB91
:1035A0000E01CCF1200E03FA0EFE10EB0E0051F1CD
:1035B0000001CCF1200E29D412FA0EF201EB0451D5
:1035C000BDE8104058BF7047401C1CBFB2F1004F0F
:1035D000704700280CBF491C20F00100704712EB17
:1035E000020E43EB030218BF4FF0010E4EEA4202F7
:1035F000ACF1200CDCF11E0E54D943FA0CFE10EB9A
:103600000E0051F1FF31CCF11E0ED5D50EF1010E99
:1036100012FA0EFE404141EB010101EB445C5FEA0E
:103620005C5C10D910EBDE7001EB045138BFBEF1C9
:10363000004FBDE8104018BF704700280CBF491C60
:1036400020F00100704730D24FEAD42C11F5001160
:1036500024F400641BD0B1FA81F20B3AA41AA41E20
:10366000D2F12003914030FA03F31943904001EB6B
:10367000CC71002C01EB0451BDE81040A8BF70478D
:1036800001F1C0414FF0000001F000417047B0FA75
:1036900080F310FA03F100D110BDE41A173C48057D
:1036A000C90AE4E701EB045110BD491001EB0451D4
:1036B000BDE810404FEA300002E04FF000017047D3
:1036C0004A0008BF0042F8D0B2F5001F28BF70477B
:1036D00001F000414FF0000070479EEA445F07D0C0
:1036E00011EA5E0FBDE8104004BF002100207047C2
:1036F000BDE8104070B5FFF716FE00BF40DFF63E94
:1037000083F00041104670470000E0FF43004FEA9D
:10371000D30C4FEA3C0C43401FBF40070CF16051F3
:1037200013F0FE4F70471CF0006F03D100200CF027
:10373000004170470CF0004343EA507010B540EA76
:10374000CC0000F005F900BF000000924FEA000134
:10375000FFF7E0BE4FF000414FF00000A1F500215F
:10376000704700004FF47F0C1CEAD0121EBF1CEA09
:10377000D11392EA0C0F93EA0C0F00F0858090EAC7
:10378000010F48BF42F4807240F4000C41F4000085
:103790002CF07F4120F07F4000B58142A2EB030274
:1037A0000FF2081CACEB504EC0F100009EF800E098
:1037B0004FEA4E0E00FB0EFC38BF49004FEA2C1CAE
:1037C00002F5FA020CFB0EF34FEACE1E4FEA112C63
:1037D0004FEAC1210EEB635E42EB22420EFB0CFC72
:1037E0004FEA1C5300FB03114FEA112C4FEA013141
:1037F0000EFB0CFC4FEADC4C00FB0C11C14228BF55
:1038000009184CEB03335DF804EB10EB410143EB7B
:10381000C250B2F57C0F38BF704729D512F0F00FB7
:103820001CBF00F1C04000F000407047008182835F
:103830008485868788898B8C8D8E8F9192939596BF
:1038400097999A9C9D9FA0A2A3A5A7A8AAACAEB049
:10385000B2B3B5B7B9BCBEC0C2C5C7C9CCCED1D44E
:10386000D7D9DCDFE2E6E9ECF0F3F7FAFE0000007E
:103870004FEA400C0CF1807CBCF17E4F28BF7047B2
:10388000B0F1C04000F0AAB890EA010F0CEAD113E1
:1038900048BF42F48072624538BF634507D213F4D3
:1038A0007F0F16D080EA010000F00040704710B58D
:1038B00000F04EF8097EFC3E00F005B880EA0100F9
:1038C00000F00040704780EA010000F0004000F086
:1038D00085B812F47F0F04BF0248704780EA0100E8
:1038E00000F07CB80000C07F41000B0ED3F19E02B7
:1038F00008D950F400034FEA032323FA02F048BF2B
:103900004042704710B500F023F800BF4992248070
:10391000002070476FF0004282EA200070470000EC
:1039200010F0004148BF4042B0FA80F310FA03F2B1
:10393000C3F19D030BD051EAC35101EB1220530692
:1039400038BF704700F1010008BF20F00100704748
:103950000EF1020E2EF0030E5EF8044B244204D446
:103960004FEA4102B2F17F4F11D84FEA4003B3F161
:103970007F4F0CD80ED14FEAD07CB2F17F4F0CEBC9
:103980004C0C0CF1020C08BF4CEBD17C04E04FF066
:10399000080C01E04FEAD17C0CEB4C0324FA03F451
:1039A00004F00704B4F1040C06D20EEB840CBDE85D
:1039B00010404CF0010C6047DFE80CF007080202F1
:1039C0004FF00040A0F5800010BD0846420018BF2F
:1039D000D2F1807288BF00F0004010BDFF2141EAA3
:1039E000D050C00570470CF00F03092B08BF08200A
:1039F00000F059800A2B0BD0082B18BF704708BF66
:103A00001CF0400F0AD04FF000004FF0000170474B
:103A10001CF0400F18BF4FF0004070471CF0100F13
:103A200008D020F0704300F07F4242EAD3014FEA11
:103A30004370704700F0604021F07F4242EA00028C
:103A400001F07F4040EA727070474FF0FF0C4CF479
:103A5000E06C1CEA11531CBF9CEA030C9445C2BFE6
:103A6000DA4201EB02517047002B0DD0BCF1000F80
:103A70000FD0002A01F00041A4BF41F0E04141F025
:103A80007F614FF00000704701F000414FF00000EF
:103A9000704750EA01334FF09B0C18BF4CF0806C1C
:103AA0007FF4B2AA70471CF4801F11D01CF4E02FE1
:103AB00003D06FEACC31490070474FF04050EFF32C
:103AC000008222F0704242EA000282F300887047CE
:103AD0004FF00000704700000000000000000000F0
:103AE00000000000000000000000001000100010A6
:103AF000001000100010000000100000000000285E
:103B00000028002800000000000000000000000065
:103B1000000000240024007C00240048007C0048B1
:103B20000048000000000038005400500038001425
:103B300000540054003800100000002000540058C9
:103B4000003000280054001400080000000000109D
:103B5000002800280010003400480048003400000D
:103B60000000001000100010000000000000000025
:103B700000000000000000080010002000200020CD
:103B80000020002000200010000800200010000885
:103B900000080008000800080008001000200010BD
:103BA00000380010002800000000000000000000A5
:103BB00000000000000000100010007C0010001049
:103BC00000000000000000000000000000000000F5
:103BD00000000000001000100010000000000000B5
:103BE000000000000038000000000000000000009D
:103BF00000000000000000000000000000100000B5
:103C00000000000800080010001000100010002044
:103C1000002000000000003800440044005400442C
:103C20000044004400380000000000100030005044
:103C300000100010001000100010000000000038FC
:103C4000004400440004000800100020007C000034
:103C50000000003800440004001800040004004480
:103C60000038000000000008001800280028004864
:103C7000007C0008000800000000007C00400040BC
:103C80000078000400040044003800000000003800
:103C90000044004000780044004400440038000024
:103CA0000000007C0004000800100010002000202C
:103CB00000200000000000380044004400380044A8
:103CC0000044004400380000000000380044004474
:103CD0000044003C000400440038000000000000E4
:103CE00000000010000000000000000000100000B4
:103CF00000000000000000000010000000000000B4
:103D000000100010001000000000000C0030004007
:103D10000030000C00000000000000000000000067
:103D2000007C0000007C000000000000000000009B
:103D3000000000600018000400180060000000008F
:103D400000000038004400040008001000100000CB
:103D500000100000000000380044004C0054005CDB
:103D6000004000400038000000000010002800283B
:103D700000280028007C0044004400000000007877
:103D800000440044007800440044004400780000EF
:103D90000000003800440040004000400040004463
:103DA0000038000000000070004800440044004457
:103DB00000440048007000000000007C004000400B
:103DC000007C004000400040007C00000000007CBF
:103DD00000400040007800400040004000400000EB
:103DE00000000038004400400040005C00440044F3
:103DF000003800000000004400440044007C0044FF
:103E0000004400440044000000000038001000108E
:103E10000010001000100010003800000000000426
:103E20000004000400040004000400440038000002
:103E30000000004400480050006000500048004866
:103E400000440000000000400040004000400040EE
:103E500000400040007C000000000044006C006C4A
:103E600000540044004400440044000000000044AA
:103E70000064006400540054004C004C00440000F6
:103E80000000003800440044004400440044004462
:103E9000003800000000007800440044004400782E
:103EA0000040004000400000000000380044004492
:103EB000004400440044005400380004000000782E
:103EC00000440044004400780048004800440000DA
:103ED00000000038004400400030000800040044A6
:103EE000003800000000007C0010001000100010DE
:103EF00000100010001000000000004400440044C6
:103F00000044004400440044003800000000004425
:103F10000044004400280028002800100010000081
:103F2000000000440044005400540054006C002879
:103F300000280000000000440028002800100010A5
:103F4000002800280044000000000044004400282D
:103F50000028001000100010001000000000007C7D
:103F6000000400080010001000200040007C000049
:103F700000000018001000100010001000100010C9
:103F80000010001000180020002000100010001089
:103F900000100008000800000000003000100010B1
:103FA0000010001000100010001000100030001071
:103FB000002800280044000000000000000000006D
:103FC00000000000000000000000000000000000F1
:103FD0000000000000FE00200010000000000000B3
:103FE0000000000000000000000000000000003899
:103FF0000044003C0044004C00340000000000403D
:104000000040005800640044004400640058000070
:104010000000000000000038004400400040004460
:10402000003800000000000400040034004C00448C
:104030000044004C00340000000000000000003884
:104040000044007C00400044003800000000000CE8
:104050000010007C00100010001000100010000084
:104060000000000000000034004C00440044004CFC
:104070000034000400780040004000580064004410
:1040800000440044004400000000001000000070E4
:1040900000100010001000100010000000000010C0
:1040A0000000007000100010001000100010001040
:1040B00000E0004000400048005000600050004810
:1040C00000440000000000700010001000100010FC
:1040D0000010001000100000000000000000007838
:1040E000005400540054005400540000000000002C
:1040F00000000058006400440044004400440000F4
:104100000000000000000038004400440044004467
:104110000038000000000000000000580064004467
:1041200000440064005800400040000000000034DB
:10413000004C00440044004C003400040004000023
:1041400000000058006400400040004000400000B3
:104150000000000000000038004400300008004467
:10416000003800000000002000200078002000201F
:1041700000200020001800000000000000000044A3
:10418000004400440044004C0034000000000000E3
:10419000000000440044002800280028001000000F
:1041A000000000000000005400540054006C00287F
:1041B000002800000000000000000044002800105B
:1041C000001000280044000000000000000000442F
:1041D00000440028002800100010001000600000BB
:1041E0000000007C0008001000200040007C00005F
:1041F0000000001800100010001000200020001027
:104200000010001000180010001000100010001026
:1042100000100010001000100010003000100010FE
:10422000001000080008001000100010003000000E
:10423000000000000074004C0000000000000000BE
:10424000000000000000000000000000000000006E
:10425000000000000000000000000000000000005E
:104260000000000000000000000C000C000C000C1E
:10427000000C000C000C000C000C000C000C0000EA
:10428000000C000C0000000000000000001B001BE0
:10429000001B001B001B00000000000000000000CD
:1042A000000000000000000000000000000000000E
:1042B0008019801980198019C07FC07F8019003350
:1042C000C07FC07F003300330033003300000000A4
:1042D00000000000001E003F807580650074003CF7
:1042E000001E00078005806580658075003F001E08
:1042F0000004000400000000007000D840D8C0D8BE
:1043000080D900730006000C801BC036C066C04612
:10431000C00680030000000000000000001E003FF7
:10432000003300330033001E000CC03CC0668063C5
:1043300080618063C03E801C00000000000000001F
:10434000000C000C000C000C000C00000000000031
:10435000000000000000000000000000000000005D
:104360000000800000010003000600060004000CAD
:10437000000C000C000C000C000C000400060006F1
:10438000000300018000002000100018000C000C49
:1043900000040006000600060006000600060004F1
:1043A000000C000C0018001000200000000C002D74
:1043B000003F001E0033000000000000000000006D
:1043C00000000000000000000000000000000000ED
:1043D00000000000000C000C000C000CC0FFC0FF2F
:1043E000000C000C000C000C00000000000000009D
:1043F00000000000000000000000000000000000BD
:10440000000000000000000000000000000C000C94
:10441000000400040008000000000000000000008C
:104420000000000000000000001E001E0000000050
:10443000000000000000000000000000000000007C
:10444000000000000000000000000000000000006C
:1044500000000000000C000C000000000000000044
:104460000003000300030006000600060006000C1F
:10447000000C000C000C00180018001800000000D0
:1044800000000000001E003F0033806180618061F9
:10449000806D806D8061806180610033003F001E0F
:1044A00000000000000000000006000E001E0036A4
:1044B00000260006000600060006000600060006AC
:1044C000000600060000000000000000001E003F83
:1044D000807380618061800100030006000C001879
:1044E00000300060807F807F00000000000000003E
:1044F000001C003E006300630003000E000E00037A
:104500008001800180618073003F001E0000000078
:10451000000000000006000E000E001E001E001627
:10452000003600360066807F807F000600060006A9
:104530000000000000000000007F007F00600060BD
:104540000060006E007F8063800180018061807365
:10455000003F001E0000000000000000001E003FA1
:10456000803380610060006E007F807380618061B5
:1045700080618033003F001E00000000000000004A
:10458000807F807F80010003000300060006000C8E
:10459000000C000C000800180018001800000000B3
:1045A00000000000001E003F8063806180610021E8
:1045B000001E003F8061806180618061003F001EBD
:1045C0000000000000000000001E003F007380613A
:1045D000806180618073803F801D800180610073F5
:1045E000003F001E0000000000000000000000006E
:1045F00000000000000C000C0000000000000000A3
:1046000000000000000C000C000000000000000092
:1046100000000000000000000000000C000C000082
:104620000000000000000000000C000C000400046A
:104630000008000000000000000080008003000E61
:10464000003800600038000E800380000000000089
:10465000000000000000000000000000000000005A
:10466000807F807F00000000807F807F000000004E
:10467000000000000000000000000000000000003A
:10468000000000400070001C000780010007001CB3
:10469000007000400000000000000000000000006A
:1046A000001F803FC071C060C000C00180030007D0
:1046B000000E000C000C0000000C000C00000000BC
:1046C00000000000001E003F803180718063806F19
:1046D000806D806D806F806700600032003E001C3E
:1046E0000000000000000000000E000E001B001B78
:1046F000001B001B80318031803F803F8031C060D3
:10470000C060C0600000000000000000007C007E6F
:104710000063006300630063007E007E00638061CD
:1047200080618063007F007E0000000000000000C8
:10473000001E003F8031806100600060006000600A
:104740000060006080618031003F001E00000000BA
:1047500000000000007C007F006380638061806156
:10476000806180618061806100630063007E007C05
:104770000000000000000000807F807F006000607B
:1047800000600060007F007F0060006000600060EB
:10479000807F807F0000000000000000807F807F1D
:1047A0000060006000600060007F007F00600060CB
:1047B0000060006000600060000000000000000079
:1047C000001E003F803180610060006000608063F7
:1047D0008063806180618031803F001E00000000A6
:1047E0000000000080618061806180618061806183
:1047F000807F807F80618061806180618061806175
:104800000000000000000000003F003F000C000C12
:10481000000C000C000C000C000C000C000C000C38
:10482000003F003F00000000000000008001800108
:104830008001800180018001800180018001806110
:1048400080618073003F001E000000000000000037
:10485000C0608061006300660066006C0078007CC8
:1048600000660066006380618061C0600000000037
:1048700000000000006000600060006000600060F8
:10488000006000600060006000600060807F807FEA
:104890000000000000000000C071C071C07BC07A41
:1048A000C06AC06AC06EC064C060C060C060C060E2
:1048B000C060C060000000000000000080718071D6
:1048C000807980798079806D806D806D806580676A
:1048D0008067806780638063000000000000000044
:1048E000001E003F003380618061806180618061D3
:1048F0008061806180610033003F001E0000000085
:1049000000000000007E007F806380618061806124
:104910008063007F007E00600060006000600060D7
:104920000000000000000000001E003F0033806116
:104930008061806180618061806180658067003313
:10494000803F401E0000000000000000007E007F4D
:104950008063806180618063007F007E0066006309
:10496000006380618061C060000000000000000002
:10497000000E001F8031803100300038001E00071B
:104980008003806180618031003F001E00000000D4
:1049900000000000C0FFC0FF000C000C000C000C69
:1049A000000C000C000C000C000C000C000C000CA7
:1049B0000000000000000000806180618061806173
:1049C00080618061806180618061806180618073CD
:1049D000003F001E0000000000000000C060C0603A
:1049E000C060803180318031001B001B001B001B28
:1049F000000E000E000E0004000000000000000089
:104A0000C0C0C0C0C0C0C0C0C0C0C0CC804C804C02
:104A1000805E80528052807380618061000000005F
:104A200000000000C0C0806080610033003B001EB9
:104A3000000C000C001E001F003B80718061C0C094
:104A40000000000000000000C0C0806180610033F1
:104A50000033001E001E000C000C000C000C000CAB
:104A6000000C000C0000000000000000803F803FB0
:104A70008001000300030006000C000C0018001861
:104A800000300060807F807F000000000000000F89
:104A9000000F000C000C000C000C000C000C000CB3
:104AA000000C000C000C000C000C000C000C000FA3
:104AB000000F0000001800180018000C000C000C7B
:104AC000000C0006000600060006000300030003B9
:104AD000000000000000001E001E00060006000688
:104AE0000006000600060006000600060006000696
:104AF000000600060006001E001E0000000C000C50
:104B0000001E00120033003380618061000000004D
:104B10000000000000000000000000000000000095
:104B20000000000000000000000000000000000085
:104B30000000000000000000000000000000E0FF96
:104B40000000000000380018000C00000000000009
:104B50000000000000000000000000000000000055
:104B60000000000000000000000000000000000045
:104B7000001F803F80618001801F803F80618063D3
:104B8000807FC0380000000000000000006000606E
:104B900000600060006E007F8073806180618061D2
:104BA00080618073007F006E000000000000000044
:104BB0000000000000000000001E003F80738061C4
:104BC0000060006080618073003F001E00000000F4
:104BD000000000008001800180018001801D803F75
:104BE000807380618061806180618073803F801DFF
:104BF00000000000000000000000000000000000B5
:104C0000001E003F00738061807F807F00608071A4
:104C1000003F001E0000000000000000C007C00FA1
:104C2000000C000C807F807F000C000C000C000C3E
:104C3000000C000C000C000C000000000000000044
:104C4000000000000000801D803F80738061806153
:104C5000806180618073803F801D80018063007F60
:104C6000003E00000060006000600060006F807F18
:104C7000807180618061806180618061806180611C
:104C80000000000000000000000600060000000018
:104C9000003E003E00060006000600060006000674
:104CA00000060006000000000000000600060000EC
:104CB0000000003E003E000600060006000600065A
:104CC00000060006000600060046007E003C0000CC
:104CD0000060006000600060806100630066006C3E
:104CE000007C0076006300638061C060000000000B
:104CF00000000000003E003E000600060006000620
:104D00000006000600060006000600060006000673
:104D10000000000000000000000000000000000093
:104D200080DDC0FFC0CEC0CCC0CCC0CCC0CCC0CC1D
:104D3000C0CCC0CC0000000000000000000000005B
:104D400000000000006F807F807180618061806161
:104D500080618061806180610000000000000000CF
:104D60000000000000000000001E003F8073806112
:104D70008061806180618073003F001E0000000040
:104D800000000000000000000000006E007F807343
:104D900080618061806180618073007F006E00604F
:104DA0000060006000600000000000000000801D46
:104DB000803F807380618061806180618073803F0B
:104DC000801D800180018001800100000000000042
:104DD000000000000067803F0039003000300030E4
:104DE0000030003000300030000000000000000003
:104DF0000000000000000000001E803F8061006095
:104E0000007F803F80018061007F001E0000000065
:104E1000000000000000000800180018007F007F5C
:104E2000001800180018001800180018801F800FC4
:104E30000000000000000000000000000000000072
:104E40008061806180618061806180618061806358
:104E5000807F803D00000000000000000000000096
:104E600000000000C060803180318031001B001BD9
:104E7000001B000E000E00060000000000000000F5
:104E8000000000000000000080DD80DD80DD0055B6
:104E90000055005500770077002200220000000036
:104EA00000000000000000000000000080610033EE
:104EB0000033001E000C000C001E00330033806124
:104EC0000000000000000000000000000000806101
:104ED0008061803100330033001B001B001B000E7B
:104EE000000E000E001C007C00700000000000009E
:104EF00000000000C07FC07F800100030006000C9E
:104F000000180030C07FC07F000000000000800358
:104F1000800700060006000600060006000E001CC2
:104F2000001C000E000600060006000600068007B2
:104F300080030006000600060006000600060006C4
:104F40000006000600060006000600060006000631
:104F50000006000600060038003C000C000C000CA7
:104F6000000C000C000E00070007000E000C000CE7
:104F7000000C000C000C003C003800000000000099
:104F800000000000000000008038807F0047000023
:104F90000000000000000000000000000000000011
:104FA0000000000C000000000000007880000000FD
:104FB000000001F020000000000003FF00000000DE
:104FC00000000FFC00000000000007C0000000000F
:104FD0000000000000000000000000020000780750
:104FE000C003800C0000FC0FC00380000000FC0F19
:104FF000C00380000000EC0DC00180000000EC0D3B
:10500000F81D8FE0FE00E61DF81D9FF3FF00E61976
:10501000FC3BB83B8700E619DC3B803F0380E61988
:10502000DC3B807F0380E339CC738FFF0380E33167
:10503000CE739F3F0380E331CE63F83F0380E3B13B
:10504000C663F03F0380E1F1C7E3F0370380E1E19D
:10505000C7C3F8770380E1E1C3C3BFE70380E1E1A1
:10506000C3C38FC70380000003800000000000005E
:105070000380000000000000078000000000000026
:105080001F000000000000001E00000000000000E3
:105090000000000000000000000000000000000010
:1050A00000000000000001020304060708090000D8
:1050B0000000010203040000D85000080000002096
:1050C00084000000280100085C51000884000020D2
:1050D000340B000044010008070A0000D63A00081B
:1050E0000B12000042420008000000000000000017
:1050F00000000000000000000000000000000000B0
:10510000000000000000000000000000000000009F
:1051100000000000000000002C010000E803000077
:10512000000000000000000000000000000000007F
:10513000000000000000000000000000000000006F
:10514000000000000000000000000000010000005E
:0C51500010000000000000000024F4002B
:04000005080000ED02
:00000001FF
