:020000040800F2
:10000000300C0020910100086D2700088D200008A9
:10001000B524000827050008F5300008000000009E
:10002000000000000000000000000000352B000868
:1000300001070008000000006F270008592D000884
:10004000AB010008AB010008AB010008AB010008E0
:10005000AB010008AB01000803070008090700080E
:100060000F070008150700081B070008AB01000870
:10007000AB010008AB010008AB010008AB010008B0
:10008000AB010008AB010008AB010008AB010008A0
:10009000AB010008AB010008AB0100082107000814
:1000A000AB010008AB010008AB010008BD2D000842
:1000B000AB010008AB010008AB010008AB01000870
:1000C000AB010008AB010008AB010008AB01000860
:1000D000AB010008E9300008AB010008AB010008E3
:1000E000AB010008AB010008AB01000800F002F80A
:1000F00000F03FF80AA090E8000C82448344AAF183
:100100000107DA4501D100F034F8AFF2090EBAE880
:100110000F0013F0010F18BFFB1A43F0010318473B
:10012000E85A0000085B0000103A24BF78C878C184
:10013000FAD8520724BF30C830C144BF04680C60ED
:10014000704700000023002400250026103A28BF35
:1001500078C1FBD8520728BF30C148BF0B60704739
:10016000642900F09180002070471FB51FBD10B5B5
:1001700010BD00F0A3F91146FFF7F7FF03F0E4F814
:1001800000F0C1F903B4FFF7F2FF03BC00F0C4F9BB
:100190000948804709480047FEE7FEE7FEE7FEE71B
:1001A000FEE7FEE7FEE7FEE7FEE7FEE70448054957
:1001B000054A064B70470000BB2D0008ED00000803
:1001C00030060020300C00203008002030080020CD
:1001D000B2F120030AD5C2F1200320FA02F001FA9D
:1001E00003F321FA02F140EA0300704721FA03F019
:1001F0004FF00001704700000FB41CB5074B06AA72
:100200007B4469460090059800F015F90020694686
:1002100000F024F91CBC5DF814FB0000590200003A
:100220002DE9F0410E460446002020622046E16898
:10023000884730B3252805D0D4E901219047206AAA
:10024000401CF2E7E168204600278847050018D0E7
:10025000A5F14100192802D820354FF40067324635
:10026000294620462760FFF77BFF40B1012804D0D4
:10027000F61D26F007060836D8E7361DD6E72846CD
:10028000DAE7206ABDE8F0812DE9F0410646002456
:1002900010687529314616A510D0AFF300800028EC
:1002A00002DA404213A507E031688A0701D512A59A
:1002B00002E0490704D511A5012401E0AFF3008055
:1002C00000210A2206F1240709E0B0FBF2FCB0FB92
:1002D000F2F302FB1C00303078541846491C002809
:1002E000F3D123462A463046BDE8F04100F045B838
:1002F000000000002D0000002B0000002000000086
:1003000002F0FF0343EA032242EA024200F0ADB8E2
:100310004FF0000200B5134694469646203922BF9E
:10032000A0E80C50A0E80C50B1F12001BFF4F7AFE9
:10033000090728BFA0E80C5048BF0CC05DF804EBCB
:10034000890028BF40F8042B08BF704748BF20F839
:10035000022B11F0804F18BF00F8012B7047704737
:100360007047704710B500F0A1F8006810BD10B5D7
:10037000044600F09BF8046010BD2DE9F0470D46DF
:1003800099469246044600F124080168880604D57F
:10039000E06921F01001216000E00120A84201DDA8
:1003A000471B00E00027A1697A1902EB0900081A2F
:1003B000A0612078C00602D42046AFF3008000265A
:1003C00008E0D4E901211AF806009047206A401C91
:1003D000761C20624E45F4DB2078C0060AD5204604
:1003E000AFF3008006E0D4E9012130209047206A75
:1003F000401C2062381EA7F10107F4DC07E0D4E9B5
:10040000012118F805009047206A401C2062281E30
:10041000A5F10105F3DC2046AFF30080207800064B
:1004200002D50220BDE8F0870120FBE701694A1CE4
:1004300002610878704700B58FB0CDE90131002125
:10044000059105497944CDE9031011466846FFF747
:10045000E7FE0FB000BD0000E5FFFFFF0A6802F8ED
:10046000010B0A6070474FF000020429C0F01280AF
:1004700010F0030C3FF44EAFCCF1040CBCF1020FB2
:1004800018BF00F8012BA8BF20F8022BA1EB0C012C
:10049000FFF740BF5FEAC17C24BF00F8012B00F8E2
:1004A000012B48BF00F8012B70470000004870473F
:1004B000D005002000487047D00500207546FFF7A2
:1004C000F9FFAE4605006946534620F00700854611
:1004D00018B020B5FFF76AFEBDE820404FF00006D7
:1004E0004FF000074FF000084FF0000B21F007011C
:1004F000AC46ACE8C009ACE8C009ACE8C009ACE85F
:10050000C0098D46704710B50446AFF30080204601
:10051000BDE81040FFF736BE01491820ABBEFEE72C
:10052000260002007047FEE710B500210E2002F001
:10053000BFF90122504951A002F0C4FA0B2100205A
:1005400002F0B6F901224C4950A002F0BBFA182182
:10055000002002F0ADF90122524953A002F0B2FA94
:10056000534C54A15448A26BFFF746FEA06B0A28D7
:100570000BDA1821382002F09BF9012249494FA0DB
:1005800002F0A0FA182159201FE0A0F10B0159290F
:100590000BD21821382002F08BF90122414948A0E2
:1005A00002F090FA18214E200FE040F283316538B6
:1005B00088420CD21821382002F07AF901223949F8
:1005C0003AA002F07FFA1821432002F071F90122CB
:1005D0003449394802F076FA1821502002F068F9BF
:1005E0003421002002F064F90022234935A002F0F2
:1005F00069FA3421072002F05BF901221E4932A07A
:1006000002F060FA3421202002F052F900221A4947
:100610002EA002F057FA3421272002F049F90122D6
:1006200015492BA002F04EFA3421452002F040F982
:100630000022114928A002F045FA34214C2002F092
:1006400037F901220C4925A002F03CFA34215C2044
:1006500002F02EF90022084921A002F033FA3421D9
:10066000632002F025F9012203491EA002F02AFAB4
:10067000BDE8104002F03ABA00000020434F462087
:100680004D6561737572616D656E74002D2D2D2D34
:100690002D2D2D2D2D2D2D2D2D2D2D2D2D2D2D2D8A
:1006A0000000000008000020434F463D20000000ED
:1006B0001800002025640000A40500202020200050
:1006C00020200000610000003A5570006200000028
:1006D0003A44574E00000000630000003A3C00001E
:1006E000640000003A456E740000000003480021D9
:1006F0000160416081600121C160704718000020E5
:100700007047012000F080BA022000F07DBA04207A
:1007100000F07ABA082000F077BA102000F074BA1E
:10072000202000F071BA000006490020C861064888
:10073000016941F004010161016941F04001016179
:1007400070470000B005002000200240064A00214A
:10075000D16106490A6942F002020A6148610869EA
:1007600040F0400008617047B005002000200240C2
:10077000044B0022DA61044A136943F00103136158
:1007800001807047B005002000200240144800227C
:10079000C168CB06134904D5CA6942F00202CA6196
:1007A0001022C3685B0705D5CB6943F00103CB6119
:1007B00042F00402C369DB0707D0CB6943F00403AE
:1007C000CB61C16921F00101C161A2F580710139DC
:1007D00001D0C2607047C16921F00101C161704759
:1007E00000200240B005002070B5054600F00EFB69
:1007F0000646114C09E0681C07D025B100F006FB45
:10080000801BA84201D9032070BDE068C007F2D167
:10081000E068800601D52020E060E068C00605D4CD
:10082000E069C00702D1E068400703D5FFF7AEFFDB
:10083000012070BD002070BD0020024070B586B060
:1008400015460E46044600F041F9311B0020491CB4
:10085000890A02940090CDE9031004A9684600F0CB
:1008600097F82A4600232146022000F0EFF800F016
:10087000E3F806B070BD00000348002101220160CA
:10088000C0E90112C16070471800002010B590F84F
:1008900021100022022905D00421816380F8202044
:1008A000012010BD01680B6823F00E030B60016886
:1008B0000B6823F001030B6090F84030C46B0121FA
:1008C00001FA03F3636080F8211080F820201046BD
:1008D00010BD000010B590F821100024022903D0AB
:1008E0000421816301243DE001680A6822F00E02C0
:1008F0000A6001680A6822F001020A601A4A016867
:10090000914201D1012121E0174A1432914201D1D3
:1009100010211BE0144A2832914201D1891515E0BB
:10092000114A3C32914201D189140FE00E4A5032F3
:10093000914202D14FF4803108E00B4A6432914277
:1009400002D14FF4801101E04FF08071064A083A5D
:100950005160012180F82110002180F82010416BA6
:1009600001B18847204610BD0800024070B504461A
:1009700000F04CFA0546601C02D00448007804449C
:1009800000F044FA401BA042FAD370BD8000002062
:100990002DE9F047054626480F460126017E01292C
:1009A0000FD00121814601762868DFF888804CF25B
:1009B0005034022808D0A2462046FFF715FFA8B100
:1009C00031E00220BDE8F0872046FFF70DFF08BBAD
:1009D0000120FFF7A9FE2046FFF706FFD8F8101008
:1009E000064621F00401C8F810101CE04FF0FF305B
:1009F0003860AC6811E02046FFF7A8FE5046FFF7CC
:100A0000F3FED8F81010060021F00201C8F810100B
:100A100001D03C6007E004F58064D5E9020100EBF9
:100A20008120A042E7D8002189F818103046C9E794
:100A3000B0050020002002400348016941F0800118
:100A40000161002070470000002002402DE9F05FA6
:100A500007461C4888460024017E15461E4601298B
:100A600009D00121814601764CF2503A5046FFF7F9
:100A7000BBFE18B122E00220BDE8F09F012F02D09A
:100A8000022F00D00427D346DFF83CA022012846DD
:100A90003146FFF79DFB81B208EB4400FFF768FE8B
:100AA0005846FFF7A1FEDAF8102022F00102CAF83A
:100AB000102018B9641CE4B2BC42E7D3002289F8C4
:100AC0001820D9E7B0050020002002400649002088
:100AD0000A69120607D5054A4A60054A4A6009694B
:100AE000090600D501207047002002402301674518
:100AF000AB89EFCD2DE9F047804600F087F93D4CFA
:100B000001460022606301203B4D3C4E3C4FDFF824
:100B1000F490B8F1010F21D0B8F1020F2BD0B8F149
:100B2000040F41D0B8F1080F4BD0B8F1100F53D0DB
:100B3000B8F1200F36D1236BC91A642932D9E26388
:100B40006264A264C4E91320626160623946484667
:100B5000FFF774FE29463046226D1FE0236BC91A49
:100B600064291FD9C4E90F026264A2642265C4E942
:100B7000040229460CE0236BC91A642912D9C4E97E
:100B80000F206264A264E264C4E90420226D2EE0B6
:100B90003046FFF753FE39464846E26CFFF74EFEFB
:100BA000606B2063BDE8F087236BC91A6429F9D90B
:100BB000E263C4E91020A264E264226522616261FA
:100BC000C4E7236BC91A6429ECD9E2632264C4E93F
:100BD0001120E2642265B9E7236BC91A6429E1D9BF
:100BE00022646264C4E912202265226120622946DF
:100BF000CEE70000180000200FF0000810E8000801
:100C00000FF8010810F00108044910B50A68024203
:100C100002D00860FFF76EFF10BD00001404014011
:100C20002DE9F84FDFF8B891002409F1040A0AF120
:100C3000040B23460F270BF1040EC9E00125A54044
:100C40002A40AA427DD1674ED1F804C0ACEB060819
:100C5000B44532D014DCBCF1030F3AD009DCBCF14E
:100C6000000F2AD0BCF1010F1CD0BCF1020F31D112
:100C70001DE0BCF1110F17D0BCF1120F2AD119E001
:100C8000B8F5881F19D006DCB8F5803F15D0B8F547
:100C9000801F1FD111E0B8F5001F0ED0B8F5041F5A
:100CA00018D10AE0CB6815E0CB681B1D12E0CB68B9
:100CB00008330FE0CB680C330CE08B682BB1012BB1
:100CC0004FF0080303D0456104E0042302E005610E
:100CD00000E00023FF2A01D8064601E000F10406E7
:100CE0004FEA840501D9A5F12005D6F8008007FA5E
:100CF00005FC28EA0C0803FA05F548EA0508C6F8D9
:100D000000804D68ED0062D5374DAE6946F00106B2
:100D1000AE61AD6924F0030605F001050095334D81
:100D200006EB050CDCF80850A607360F07FA06F8A4
:100D300025EA0805DFF8B880404503D14FF00008E8
:100D400017E044E0DFF8AC80404502D14FF00108E5
:100D50000FE0DFF8A480404502D14FF0020808E020
:100D6000DFF89880404502D14FF0030801E04FF0D2
:100D7000040808FA06F848EA0508CCF808804D6827
:100D8000D9F80060ED034D4601D5164300E09643C7
:100D90002E604D68DAF80060AD03554601D5164364
:100DA00000E096432E604D68DBF80060ED025D4682
:100DB00001D5164300E096432E604D68DEF80060D2
:100DC000AD02754601D5164300E096432E60641CC3
:100DD0000D682A46E5407FF431AFBDE8F88F00008A
:100DE000000401400000111000100240000001400A
:100DF00000080140000C01400010014000140140B7
:100E00000AB1016170470904FBE7000001488068EE
:100E1000704700008000002070B5040025D094F8D1
:100E20003D00002520B984F83C50204600F004FA2B
:100E3000242084F83D002068016821F00101016050
:100E40002068016841F4004101602068016821F4D4
:100E50000041016000F04CFB4D4A6168914201D8AD
:100E60004C4900E04C49884201D2012070BD4B49F9
:100E70002368B0FBF1F15E6826F03F060E435E602A
:100E80006368934206D94FF4967359434FF47A73CB
:100E9000B1FBF3F12368491C1E6A26F03F0631437B
:100EA00019626168914210D84900401EB0FBF1F20E
:100EB000521CC2F30B02042A01D2042022E0B0FB30
:100EC000F1F0401CC0F30B001CE0A268F2B301EB90
:100ED000C10303EB0116431EB3FBF6F35B1C43F4A3
:100EE00080431B0549D092B301EBC10202EB011113
:100EF000401EB0FBF1F0401CC0F30B0040F48040FA
:100F000040F400402168CA694CF6FF739A431043CD
:100F1000C861D4E9071001432068026822F0C002CA
:100F200011430160D4E9030101432068826848F25B
:100F3000FF339A4311438160D4E9050108432168D6
:100F4000CA6822F0FF021043C86001E00EE016E01C
:100F50002068016841F0010101602564202084F8C7
:100F60003D00256384F83E50002070BD01EB410632
:100F7000431EB3FBF6F35B1CB3E70120C2E701EBB2
:100F80004101401EB0FBF1F0401CC0F30B00B7E77D
:100F9000A086010080841E0000093D0040420F0031
:100FA0002DE9FF4F81B089460446FFF72FFF054624
:100FB00094F83D004FF0010820287DD1192301222B
:100FC00050492046009501F0EDF8002874D194F8BE
:100FD0003C00012870D0012084F83C0020680168A2
:100FE000C90703D1016841F001010160206801686F
:100FF00021F400610160242084F83D00002626646D
:101000004148E0624FF0011B20272068016841F44D
:10101000807101600095002259462046049B01F032
:10102000C1F850B120680068C00502D54FF40070C7
:101030002064032005B0BDE8F08F216809F0FE00B0
:101040000861FFF7E3FE2168054648694969C0F376
:101050004000C1F380214FF0A00A0FE0FFF7D6FE59
:10106000411B0498814200D808B984F83DA021684A
:1010700048694969C0F34000C1F3802194F83D20DC
:10108000A02A02D008B90029E8D084F83D70206871
:101090004169C943890716D4016841F400710160B0
:1010A000206841698069192301221649204600956C
:1010B00001F078F8B8B900E021E084F83D7084F8D8
:1010C0003C600020B6E7016841F4007101602168CE
:1010D0006FF480604861192301220A492046009577
:1010E00001F060F808B10120A4E7039808F10108B5
:1010F00080458AD384F83D7084F83C60F3E7022091
:1011000098E70000020010000000FFFF2DE9F84FF3
:101110001F4690468A460446DDF82890FFF776FE83
:10112000054694F83D0020287FD11923012240492B
:101130002046009501F036F8002876D194F83C005E
:10114000012872D0012084F83C0020680168C9079A
:1011500003D1016841F0010101602068016821F4B8
:1011600000610160212084F83D00102084F83E00D9
:1011700000262664C4F824806785608D20852D486C
:10118000E0622B464A465146204600F097FF90B950
:10119000206841698069009036E02A464946204629
:1011A00001F07FF850B1206C042804D12068016858
:1011B00041F4007101600120BDE8F88F606A216888
:1011C00000780861606A401C6062618D491E61851B
:1011D000218D491E89B2218522685369DB435B0753
:1011E0000BD451B100781061606A401C6062608D60
:1011F000401E6085208D401E20852A464946204697
:1012000000F0AAFF0028CED1208D0028C5D154F8C7
:101210003D0B016841F400710160202004F81E09B3
:10122000E67766770020C7E7FFE70220C4E7000003
:10123000020010000000FFFF10B586B000210091F1
:1012400001910291039100680F4988421AD10F4C15
:10125000A06940F00800A061A069694600F008009C
:101260000490C020009012200190032003900848B1
:10127000FFF7D6FCE06940F40010E061E06900F49B
:101280000010049006B010BD005400400010024051
:10129000000C014002488168027811448160704767
:1012A00080000020074810B5016841F0100101607E
:1012B000032000F075F8002000F006F800F024F894
:1012C000002010BD0020024070B50D4D04464FF4C3
:1012D0007A712878B1FBF0F00A490968B1FBF0F0A7
:1012E00000F0ECFA48B9102C07D200222146501E1B
:1012F00000F036F800206C6070BD012070BD000069
:10130000800000208C0000200C4808B5816941F065
:1013100001018161816901F001010091C16941F020
:101320008051C161C06900F080500090044841685C
:1013300021F0E06141F00071416008BD0010024001
:1013400000000140002809DB00F01F02012191404C
:101350004009800000F1E020C0F800117047000053
:10136000F0B40E4B1B680C46C3F30223C3F1070510
:10137000042D00D90425191D072901D2002300E0FE
:10138000DB1E012606FA05F1491E214099409E40C8
:10139000761E16403143F0BC01F0ADBE0CED00E00E
:1013A000064900F0070208684FF6FF03184040EABC
:1013B0000220034A10430860704700000CED00E073
:1013C0000000FA052DE9F0470F46050061D0434EB5
:1013D000306800F00700B84209D2306820F00700FA
:1013E00038433060306800F00700B84251D12868B7
:1013F0003B4C810712D5400703D5606840F4E0609C
:1014000060602878000703D5606840F46050606031
:101410006068A96820F0F000084360602878C00781
:1014200028D06868012810D02168022810D08907C8
:1014300000292EDA616821F0030101436160FFF7A2
:10144000E5FC804641F288390DE021688903EFE729
:101450008901EDE7FFF7DAFCA0EB0801494502D965
:101460000320BDE8F0876068696800F00C00B0EB0D
:10147000810FEFD1306800F00700B8420BD9306817
:1014800020F0070038433060306800F00700B842B1
:1014900001D00120E5E72878400705D56068E968B4
:1014A00020F4E060084360602878000706D5606893
:1014B000296920F4605040EAC100606000F038F80B
:1014C0006168084AC1F30311515CC84006490860CD
:1014D00006480068FFF7F8FE0020C2E7002002403F
:1014E00000100240EE5B00088C0000208400002009
:1014F0000448054900684968044AC1F30221515C67
:10150000C84070478C00002000100240FE5B0008BD
:101510000448054900684968044AC1F3C221515C86
:10152000C84070478C00002000100240FE5B00089D
:1015300012A185B00FC98DE80F0014A0144A0068ED
:1015400004905168134801F00C03042B10D0082BB1
:101550000ED1C1F38343C9031DF803000AD55168B6
:1015600004AAC1F34041515C0A4A5043B0FBF1F078
:1015700005B0704708494843FAE700000203040534
:10158000060708090A0B0C0D0E0F101001020000CF
:101590000010024000127A0000093D002DE9F84FCA
:1015A000040070D02078C04DC00749D06868C0F3EF
:1015B0008100012807D06868C0F38100022809D1A2
:1015C0006868C00306D52868800339D5606800289C
:1015D000E7D035E06068B0F5803F0BD010B1B0F5D2
:1015E000A02F11D0286820F480302860286820F4CB
:1015F000802002E0286840F480302860606890B164
:10160000FFF704FC06460AE0286840F480202860C2
:10161000F0E700BFFFF7FAFB801B642873D8286847
:101620008003F7D50CE0FFF7F1FB064605E000BFAD
:10163000FFF7ECFB801B6428F0D828688003F7D400
:1016400020789A4E80074FF001094FF0000839D5F5
:10165000686810F00C0F07D06868C0F3810002289A
:1016600009D16868C00306D42868800714D52069AA
:10167000012808D110E02069B0B1C6F80090FFF74A
:10168000C5FB074605E00AE1FFF7C0FBC01B0228C7
:10169000C4D828688007F7D52868616920F0F80069
:1016A00040EAC10028600DE0C6F80080FFF7AEFBFD
:1016B000074604E0FFF7AAFBC01B022823D82868CE
:1016C0008007F7D4207800072CD57948A169D9B1D3
:1016D000C0F80090FFF79AFB074604E0FFF796FB7F
:1016E000C01B02280FD8686A8007F7D571484FF4ED
:1016F000FA510068B0FBF1F0009000BF0098411E65
:101700000091FAD20EE080E0C0F80080FFF77EFB87
:10171000074604E0FFF77AFBC01B022875D8686A09
:101720008007F7D42078400760D5E8690027C0001B
:1017300008D4E86940F08050E861E869012700F0CA
:10174000805000905C480168C90513D40168834645
:1017500041F480710160FFF759FB824606E000BF4B
:10176000FFF754FBA0EB0A0064284ED8DBF800001A
:10177000C005F5D5E06801280AD008B1052813D0C6
:10178000286A20F001002862286A20F0040002E0A4
:10179000286A40F001002862E06841F2883B98B175
:1017A000FFF734FB82460BE0286A40F00400286211
:1017B000EEE700BFFFF72AFBA0EB0A0159455AD814
:1017C000286A8007F6D50CE0FFF720FB824605E08B
:1017D000FFF71CFBA0EB0A0159454CD8286A80078B
:1017E000F6D41FB1E86920F08050E861E06988B361
:1017F0006968C1F38101022944D00228C6F86080DB
:1018000004D0FFF703FB044638E034E0FFF7FEFAAC
:10181000074604E0FFF7FAFAC01B02282BD8286815
:101820008001F7D4206AB0F5803F05D16868A168CF
:1018300020F4003008436860D4E90801084369686F
:1018400021F4741108436860C6F86090FFF7DEFA6F
:10185000044606E025E000BFFFF7D8FA001B022887
:1018600009D828688001F7D51BE000BFFFF7CEFA42
:10187000001B022802D90320BDE8F88F28688001E8
:10188000F4D40EE00128F7D06868226A00F48031B1
:10189000914204D1616A00F47010884201D00120A5
:1018A000EAE70020E8E700000010024000004242A2
:1018B000800442428C0000200070004010B5401EA1
:1018C000B0F1807F01D3012010BD4FF0E0246061B2
:1018D0000F21601701F00FFC0020A061072020619C
:1018E000002010BD7047704770B590F83C20012A69
:1018F00026D0012480F83C40022280F83D20036875
:101900005A689D6822F070060A6832435A600D4B8F
:1019100002689A4208D0B2F1804F05D00A4B9A4231
:1019200002D00A4B9A4204D1496825F0800319433A
:10193000916080F83D40002180F83C10084670BD61
:10194000022070BD002C014000040040000800404F
:1019500010B5040003D094F83D0010B107E0012059
:1019600010BD002084F83C00204600F01FF8022043
:1019700084F83D00211D206801F026FA012084F83A
:10198000460084F83E0084F83F0084F8400084F864
:10199000410084F8420084F8430084F8440084F84D
:1019A000450084F83D00002010BD000008B5006827
:1019B0000B49884212D10B48816941F40061816171
:1019C0008069002200F40060009001211B20FFF7D5
:1019D000C7FCBDE808401B20FFF7B4BC08BD0000F1
:1019E000002C01400010024090F83D10012901D068
:1019F00001207047022180F83D1000680B498842A1
:101A000008D0B0F1804F05D00949884202D0094979
:101A1000884204D1816801F00701062903D00168DA
:101A200041F001010160002070470000002C0140DE
:101A3000000400400008004070B5044690F83C00E7
:101A4000012817D0012584F83C50022084F83D007D
:101A50002068826822F0770222F47F428260086860
:101A6000502830D00DDC20284DD005DC98B310284C
:101A70003BD148E0022070BD302844D0402834D10A
:101A800039E0602828D0702806D0B0F5805F2CD0CF
:101A9000B0F5005F29D10AE0CB68D1E901212068C7
:101AA00001F0C8F92068816841F0770109E0CB684E
:101AB000D1E90121206801F0BDF92068816841F475
:101AC0008041816011E0CA684968206801F0C4F96A
:101AD0005021206807E016E0CA684968206801F0D4
:101AE000CCF96021206801F0AFF984F83D50002066
:101AF00084F83C0070BDCA684968206801F0ACF900
:101B000040212068EFE7226801461046EBE7704766
:101B100070B50446006801694FF00005C9438907A4
:101B200015D4C168C943890711D4E91E0161012098
:101B30002077206880698007204602D0FFF7E7FF02
:101B400004E000F098F8204600F096F82577206829
:101B50000169C943490717D4C168C943490713D468
:101B60006FF004010161022020772068806910F481
:101B7000407F204602D0FFF7CAFF04E000F07BF868
:101B8000204600F079F8257720680169C9430907E4
:101B900016D4C168C943090712D46FF00801016166
:101BA000042020772068C0698007204602D0FFF714
:101BB000AEFF04E000F05FF8204600F05DF8257706
:101BC00020680169C943C90617D4C168C943C90659
:101BD00013D46FF010010161082020772068C069DC
:101BE00010F4407F204602D0FFF791FF04E000F0A0
:101BF00042F8204600F040F8257720680169C94383
:101C0000C90708D1C168C943C90704D1891E016148
:101C1000204600F032F820680169C943090609D45A
:101C2000C168C943090605D46FF0800101612046EF
:101C3000FFF758FE20680169C943490609D4C16805
:101C4000C943490605D46FF040010161204600F008
:101C500015F820680169C94389060BD4C168C943D6
:101C6000890607D46FF0200101612046BDE870406D
:101C7000FFF739BE70BD704770477047704708B5B1
:101C8000034690F83E0020281CD181B17AB193F828
:101C90003C00012816D0012083F83C001863184648
:101CA00001F0D4F9002803D1196B012901D00120DA
:101CB00008BD19680A684A680092CA6842F01002B2
:101CC000CA6008BD022008BD03480449B0F80300FB
:101CD00040BA886370470000840500201800002087
:101CE00070470000F8B5026804461068D16853696F
:101CF00010F00F0F4FF0000553D003F0010601F470
:101D0000907737435FD0C20705D0CA0503D5226C50
:101D100042F001022264420705D5DA0703D0226CA3
:101D200042F002022264820705D5DA0703D0226C52
:101D300042F004022264020707D501F02002324378
:101D400003D0226C42F008022264226C002A34D0B4
:101D5000800604D5880602D5204601F0C0F8206828
:101D60004069216CC0F38010090700D430B32046CD
:101D700001F09DF82068416949061BD5416921F0B1
:101D800040014161A06BA8B158494163A06BFEF7C7
:101D9000A1FD002811D0A06B416B01B0BDE8F0405F
:101DA000084783060FD58B060DD52046BDE8F840C1
:101DB00001F095B82046FFF793FFF8BD2046FFF7E6
:101DC0008FFF2564F8BD266B2023012E52D1C60655
:101DD00050D5CE064ED51068506800905069400628
:101DE0002AD5A16B086840680004000CEAD0A68DD3
:101DF0008642E7D9E0858869202818D0D06820F489
:101E00008070D0602068416921F001014161206843
:101E1000416921F04001416184F83E30256320682A
:101E2000C16821F01001C160A06BFEF72FFDA08DED
:101E3000E18D401A81B219E0A08DE18D401A81B286
:101E4000E08D0028BED00029BCD0D06820F490706E
:101E5000D0602068426922F00102426184F83E307D
:101E600025632068C26822F01002C2602046FFF796
:101E70002BFFF8BD05062BD50D0629D594F83D009E
:101E80002128F6D1A068B0F5805F01D12069B0B1FA
:101E9000206A411C2162216800784860E08C401E65
:101EA0000004000CE084E4D12068C16821F08001C6
:101EB000C1602068C16841F04001C160F8BD206A7E
:101EC0000088C0F308005060206A801C2062E5E7AB
:101ED0004006F3D54806F1D5D168204621F04001EF
:101EE000D16084F83D3000F0D0F8F8BD9F2E000896
:101EF00070B5040004D094F83D00002510B106E050
:101F0000012070BD84F83C50204600F023F82420C6
:101F100084F83D002068C16821F40051C16020466A
:101F200001F038F82068016921F4904101612068CE
:101F3000416921F02A0141612068C16841F40051E2
:101F4000C1602564202084F83D0084F83E00002014
:101F500070BD000030B585B0002400940194029457
:101F600003940068184988422CD11848816941F4CB
:101F700080418161816901F480410491816941F06E
:101F8000040181618069124D00F0040004904FF457
:101F900000700090022001900320039069462846BB
:101FA000FEF73EFE2815CDE9000469462846029456
:101FB000FEF736FE002211462520FFF7D1F9252035
:101FC000FFF7C0F905B030BD0038014000100240F5
:101FD00000080140704700002DE9F843044690F8DE
:101FE0003D001F4616460D4620284CD1C5B1BEB156
:101FF00094F83C00012846D0012084F83C004FF0C2
:102000000008C4F84080212084F83D00FEF7FEFE61
:10201000A6848146E684A068B0F5805F03D004E022
:102020000120BDE8F883206928B12E465FF0000545
:1020300084F83C800EE00026FAE78021204601F07B
:1020400020F8A0B9AEB116F8010B21684860E08C09
:10205000401EE084E08C4B464FF0000200970028C1
:10206000EBD14FF04001204601F00BF830B10320D6
:10207000D7E735F8020BC0F30800E6E7202084F824
:102080003D000020CDE70220CBE77047FEE7016866
:102090004A69D24352050FD46FF480624A6100212D
:1020A00040F8301F202242738173026942F004021B
:1020B000026101730120704700207047F8B50446A3
:1020C000C06A1E460D461746082807D0012805D0CD
:1020D00010F5803F02D0206B122804D120680168DF
:1020E00041F480710160134600224FF00111204637
:1020F000009600F057F840B120680068C00502D58E
:102100004FF4007020640320F8BD2069B0F5804FC3
:102110000ED00620216800EAD51040F0F0000861DA
:1021200033463A460B49204600F070F878B902E091
:1021300005F0FE0000E0E8B2216808610549334679
:102140003A46891F204600F061F80028DCD00120C3
:10215000F8BD00000800010070B516460D460446A3
:102160000DE02046FFF793FF08B1012070BD681C09
:1021700005D0FEF74BFE801BA84207D835B120687A
:102180004069C0434007ECD4002070BD002044F8F3
:10219000300F20216173A073216941F0200121617A
:1021A0002073E2E72DE9F0471E4690460D460446AF
:1021B000C1F30747DDF8209008E0701C06D0FEF759
:1021C00025FEA0EB0900B0420FD876B12068012FA0
:1021D00018D0806925EA00000004000C14D000210A
:1021E0004145EAD00020BDE8F087002044F8300FD8
:1021F00020216173A073216941F0200121612073C6
:102200000120F0E74069E5E70121E9E72DE9F04722
:102210009A4691460E46044600254FF02008C1F329
:10222000074725E020684069C043400514D4206872
:10223000016841F40071016021686FF480604861B9
:10224000256384F83D8084F83E50206C40F0040003
:10225000206484F83C501FE0B9F1FF3F08D0FEF73E
:10226000D5FDA0EB0A0149450CD8B9F1000F09D002
:102270002068012F13D0806926EA00000004000CBA
:102280000BD0CFE744F8305F84F80D80A573206948
:1022900040F02000206125730120BDE8F0874069EF
:1022A000EAE770B516460D4604460DE02046FFF7F6
:1022B000EEFE08B1012070BD681C05D0FEF7A6FD3A
:1022C000801BA84207D835B120684069C04300068A
:1022D000ECD4002070BD002044F8300F2021617341
:1022E000A073216941F0200121612073E2E7000021
:1022F0002DE9F04186B000254848009501950295EA
:102300000395816941F010018161816901F010013B
:102310000491816941F020018161816901F020010E
:102320000491816941F004018161816901F0040136
:102330000491816941F0080181618069384F00F0A2
:1023400008004FF4C0440490002221463846FEF7AE
:1023500057FDDFF8D0800022C0214046FEF750FD37
:10236000009401AA0124032682E8700069463846D9
:10237000FEF756FC2C4F0E20CDE90007694602946B
:102380004046FEF74DFC3020009028480190022086
:10239000029069464046FEF743FCC0208DE871007C
:1023A00069464046FEF73CFCCDE9004769462048B7
:1023B0000294FEF735FC002203210620FEF7D0FF31
:1023C0000620FEF7BFFF002203210720FEF7C8FF0B
:1023D0000720FEF7B7FF002211460820FEF7C0FFD6
:1023E0000820FEF7AFFF002202210920FEF7B8FF08
:1023F0000920FEF7A7FF002202210A20FEF7B0FF06
:102400000A20FEF79FFF002202211720FEF7A8FFF7
:102410001720FEF797FF06B0BDE8F08100100240DC
:1024200000100140000801400000211000001110C0
:10243000000C014010B586B00024184800940194A7
:102440000294039404941449059401604721C0E95F
:1024500001144FF6FE71C0E903148021C0E9054163
:10246000FFF776FA08B172B6FEE74FF4805000909D
:1024700069460A48FFF7E0FA08B172B6FEE704942D
:1024800004A906480594FFF72FFA002801D072B678
:10249000FEE706B010BD0000002C0140E40400205F
:1024A000034800210122C0E900128160C160704729
:1024B00018000020FEE700002DE9F05FA34C012684
:1024C0000025606888B300F0E3FFC4E90665C82012
:1024D000FEF74CFA3CE0E06B58B1E06930B1012105
:1024E000002001F087F8C4E906651BE0A069002818
:1024F000F5D1206C58B1E06930B10021012001F024
:1025000079F8C4E906560DE0A0690028F5D1A06C61
:1025100060B1A06910B1FEF7AFF903E0E06928B13E
:10252000FEF7E4F801F01AF912E014E0606C78B1FB
:1025300000F0AAFE01F012F9206A10B1E6642562EB
:1025400006E0606A10B12665656201E0E564256514
:1025500060680028BFD120687D4F002878D000F047
:1025600019FE6420FEF702FADFF8E881DFF8E8914F
:10257000DFF8E8A1DFF8E8B176E0A06C18B12069D7
:1025800008B9606990B1E06BD8B16562E563256414
:102590006564A5642565E06A01F06AFE00F0C2FD8D
:1025A000012280213846FEF72BFC07E0FFF778FF79
:1025B00001F0D4F858E000BF00F0DAF8206970B3F9
:1025C000FAE7206CA8B1256225646564A564E5641A
:1025D000E06A01F04DFE00F0A5FD002280213846A2
:1025E000FEF70EFC02E000BF00F0C2F86069B0B177
:1025F000FAE7606CF8B12561656101F0AFF8E56458
:102600002565206A28B1E66432464146484625627F
:102610000EE0606A20B126653246656206E023E07E
:102620002A4641464846FEF709F9226D514658466A
:10263000FEF704F918E0E06C58B1A5642662256540
:102640003220256100F02AFEE06C0028F8D10BE072
:102650000DE0206D40B16662A5643220656100F036
:102660001DFE206D0028F8D12068002885D1A068C3
:1026700080B300F0A3FA6420FEF778F9DFF8D48085
:102680006425384E08F101082BE0606C18B1FFF7A3
:1026900007FF01F063F8E06BA0B1E06AB0F57A6F74
:1026A00001DA643014E090FBF5F001F0E1FD6065C3
:1026B00001F05EF831464046E26AFEF7BFF800F0EE
:1026C0007DFA0CE0206C30B1E06AC828EBDD64389C
:1026D000E062E8E708E0A06C18B1FFF7E1FE01F066
:1026E0003DF8A0680028D0D1E06800282CD000F088
:1026F00071F8FDF719FF6420FEF738F921E0E06B6F
:1027000080B100BFFDF710FFE06B58B116492022E1
:10271000A1F15800FFF7B3FA00F00EFAC820FEF757
:1027200025F9EFE7206C30B1012280213846FEF711
:1027300067FB00F021FA606C18B1FFF7B1FE01F001
:102740000DF8E0680028DAD1BDE8F09F18000020FD
:10275000000801400FF8010810F001080FF0000810
:1027600010E80008FFFF010884050020FEE770471D
:1027700070B50B4D012240212846FEF741FB094C64
:10278000208D80B200F08AFD002240212846FEF70D
:1027900037FB208DBDE8704080B200F07FBD0000A7
:1027A000000801401800002010B5094C012240210A
:1027B0002046FEF725FB0A2000F070FD0022402194
:1027C0002046FEF71DFBBDE810400A2000F066BD64
:1027D0000008014010B5002000F05EF8BDE8104090
:1027E00000F084B92DE9FF4F83468946D81DC117F3
:1027F00000EB517000271D464FEAE00A3E46DDF827
:10280000348024E000241AE0600702D07806070E26
:1028100008E0E01704EB5071029800EBE10106FBC1
:102820000A100778380608D50E981FFA89F1C2B247
:102830000BEB040080B200F00FF8641C24B2AC4231
:10284000E2DB761C09F1010036B20FFA80F9464549
:10285000D8DBBDE8FF8F000070B5802813D2402977
:1028600011D20B4B012401F007051E79AC40094B36
:10287000C90800EBC1100EB132B101E0012A03D04A
:10288000195CA143195470BD195C2143FAE700009B
:10289000100000209000002028B1FF224FF480613A
:1028A0000248FDF72DBD0022F8E70000900000204F
:1028B000014A1080518070471000002010B500F0D0
:1028C00071FF44F62063012278215448FEF768FB2B
:1028D00008B1002010BD40F6C210401EFDD1AE224E
:1028E0000021782000F064FF20220021782000F0F1
:1028F0005FFF10220021782000F05AFFB022002153
:10290000782000F055FFC8220021782000F050FF09
:1029100000221146782000F04BFF10220021782081
:1029200000F046FF40220021782000F041FF812284
:102930000021782000F03CFFFF220021782000F0E9
:1029400037FFA1220021782000F032FFA6220021CB
:10295000782000F02DFFA8220021782000F028FF29
:102960003F220021782000F023FFA42200217820BC
:1029700000F01EFFD3220021782000F019FF002272
:102980001146782000F014FFD5220021782000F0B5
:102990000FFFF0220021782000F00AFFD922002149
:1029A000782000F005FF22220021782000F000FFAF
:1029B000DA220021782000F0FBFE1222002178208C
:1029C00000F0F6FEDB220021782000F0F1FE20224C
:1029D0000021782000F0ECFE8D220021782000F00C
:1029E000E7FE14220021782000F0E2FEAF22002151
:1029F000782000F0DDFE2E220021782000F0D8FEA5
:102A00000020FFF749FF00F071F805480021018020
:102A1000418001214171084610BD00009004002052
:102A2000100000202DE9F047814625480D469246CA
:102A300001882A781144802905D280464088697827
:102A40000844402802D30020BDE8F08700262AE091
:102A5000A9F1200101FB00606A68002432F81070BF
:102A60001DE000BF07FA04F0000409D5B8F8021011
:102A7000B8F800003144204489B280B252460BE0DD
:102A8000BAF1000F1AD00022B8F80210B8F800000E
:102A90003144204489B280B2FFF7DEFE641C2878FE
:102AA000A042DFD8761C6878B042D1D8B8F80010C0
:102AB0002A7848461144A8F80010C5E70122E3E748
:102AC0001000002070B515460E46044609E02A465F
:102AD0003146FFF7A7FF2178884201D0C8B270BD08
:102AE000641C20780028F2D1C0B270BD70B5104DC2
:102AF000002400BF04F1B000C2B20021782000F031
:102B000057FE00221146782000F052FE10220021CC
:102B1000782000F04DFE05EBC41280234021782080
:102B200000F056FE641CE4B2082CE3D370BD000034
:102B3000900000207047000010B50D4C01200321CB
:102B4000207061700021A1700A22E2702171607111
:102B50000621204600F008FBA071000AE071214622
:102B6000BDE810404FF47A7308220248FFF734BAE8
:102B7000780000202C05002070B50D4C012280212A
:102B80002046FEF73DF90B4D02E000BFFFF70CFEBB
:102B9000286A0028FAD0002280212046FEF730F96A
:102BA0000024054DFFF700FE641CAC42FADB70BD4B
:102BB00000080140180000200077010010B5FFF761
:102BC00009FE00210E20FFF773FE0122464947A0AF
:102BD000FFF778FF0B210020FFF76AFE0122424930
:102BE00047A0FFF76FFF18210020FFF761FE0122C9
:102BF00049494AA0FFF766FF494C606D00F0B8FDF7
:102C000018211720FFF754FE46A14748A26DFDF793
:102C1000F3FA012240494448FFF754FF18212E20BF
:102C2000FFF746FE01223C4940A0FFF74BFF182169
:102C30003920FFF73DFE3C483AA10A30E26DFDF72E
:102C4000DBFA3948012234490A30FFF73BFF3421CF
:102C50000020FFF72DFE0022234935A0FFF732FFA9
:102C600034210720FFF724FE01221F4931A0FFF77E
:102C700029FF34212020FFF71BFE00221A492EA035
:102C8000FFF720FF34212720FFF712FE012216490B
:102C90002AA0FFF717FF34214520FFF709FE002285
:102CA000114928A0FFF70EFF34214C20FFF700FE4A
:102CB00001220D4924A0FFF705FF34215C20FFF716
:102CC000F7FD0022084921A0FFF7FCFE3421632014
:102CD000FFF7EEFD012204491DA0FFF7F3FEBDE85A
:102CE0001040FFF703BF000000000020535045458F
:102CF000442041444A5553544D454E540000000071
:102D00002D2D2D2D2D2D2D2D2D2D2D2D2D2D2D2DF3
:102D10002D2D2D2D0000000008000020563D000044
:102D20001800002025640000700500202E0000001F
:102D3000610000003A557000620000003A44574EAE
:102D400000000000630000003A3C00006400000046
:102D50003A456E7400000000FEF79CBA30B58FB0A3
:102D600028216846FDF7D4FA14210AA8FDF7D0FA05
:102D700001210804CDE900100024029402250491E9
:102D8000CDE907504FF4E01009906846FEF706FCC5
:102D900008B172B6FEE70F20CDE90A054FF4806056
:102DA000CDE90C4002210AA80E94FEF70BFB002887
:102DB00001D072B6FEE70FB030BD70470148FEF794
:102DC000A7BE0000E4040020F0B50268164B174CC3
:102DD000174D4FF08047984205D0B84203D0A0422B
:102DE00001D0A84203D122F070064A6832439842CB
:102DF00005D0B84203D0A04201D0A84203D122F4AA
:102E00004074CA6822434C6922F080022243026067
:102E10008A68C2620A688262984201D109690163C4
:102E200001214161F0BD0000002C01400004004080
:102E30000008004010B5846842EA032224F47F446D
:102E40000A432243826010BD826822F070020A4366
:102E500042F007018160704710B5036A046A24F0EC
:102E600001040462846924F0F00444EA021423F0AB
:102E70000A020A438461026210BD10B5036A23F09E
:102E8000100303628369046A23F4704343EA023245
:102E900024F0A00343EA01118261016210BD10B564
:102EA000406A0021C185C184FEF71AFF10BD016888
:102EB000CA6822F49072CA6001684A6922F001026D
:102EC0004A61016B012904D10168CA6822F010022D
:102ED000CA60202180F83E1000210163704708B5C8
:102EE00090F83E10222901D0022008BD82684FF4DC
:102EF00080539A4201D1016921B1816A9A421BD063
:102F00004AB10AE00268816A5268C2F308020A8084
:102F1000816A891C08E0026972B10268526802F095
:102F20007F020A70816A491C8162C18D491E0904B1
:102F3000090CC18503D019E002685268F1E7016805
:102F4000CA6822F02002CA600168CA6822F480724E
:102F5000CA6001684A6922F001024A61202180F8B2
:102F60003E10016B012903D0FFF734F8002008BDA3
:102F7000002101630168CA6822F01002CA6001687A
:102F80000A68D20602D50A6849680091818DFEF769
:102F90009BFEEBE770B5044600680169E26821F426
:102FA0004051114301612169A068084361690843E8
:102FB0002168CA6841F20C639A430243CA602068E0
:102FC0004169A26921F44071114341611E492068A1
:102FD000884202D1FEF79CFA01E0FEF789FA00EB85
:102FE000C00101EB0012606864218000B2FBF0F3C5
:102FF000B3FBF1F36FF018067343B2FBF0F5B2FBCD
:10300000F0F605EB8305322303EB0515B5FBF1F56F
:10301000B6FBF1F605F0F00505EB0615B2FBF0F690
:10302000B2FBF0F0B0FBF1F06FF01802504306EB8A
:10303000800003EB0010B0FBF1F0216800F00F00FE
:103040002844886070BD000000380140816282859C
:10305000C28500210164222280F83E2080F83C10C5
:103060000168CA6842F48072CA6001684A6942F025
:1030700001024A610068C16841F02001C16000207E
:1030800070472DE9F041984617460E460446069DC6
:103090001DE0681C1BD02DB1FDF7B8FEA0EB0800A9
:1030A000A84214D92068C16821F4D071C160206899
:1030B000416921F001014161202084F83D0084F83C
:1030C0003E00002084F83C000320BDE8F081206829
:1030D000006836EA000004D00020B842D9D00020B1
:1030E000F3E70120F9E700000148FEF7FBBD00000F
:1030F0002C050020FEE70907090E002804DB00F17B
:10310000E02080F80014704700F00F0000F1E0208C
:1031100080F8141D7047002213461046114600F037
:1031200023BC000010B500F099FF00220A4B00F00C
:103130001BFC02460B460020084900F015FC00224B
:10314000074B00F011FC4FF0FF3201F026F900F0C0
:1031500063FD0449886210BD389C8C410000144016
:103160000040AF401800002070B5094DFF231A46FB
:1031700005F5807606E000BF10F8014B54402A5D4B
:103180005A40335D491E89B2F6D242EA032070BD2F
:10319000EE59000810B5FFF71DFB00210E20FFF7C8
:1031A00087FB01221A491BA0FFF78CFC0921002094
:1031B000FFF77EFB012216491AA0FFF783FC1521B9
:1031C0000020FFF775FB012211491CA0FFF77AFCD4
:1031D0001F210020FFF76CFB01220D491CA0FFF707
:1031E00071FC29210020FFF763FB012208491DA083
:1031F000FFF768FC33210020FFF75AFB0122044946
:103200001CA0FFF75FFCBDE81040FFF76FBC00009B
:1032100000000020434F4154494E47202D20434F8A
:10322000460000002D2D2D2D2D2D2D2D2D2D2D2D3C
:103230002D2D2D2D2D2D2D2D00000000436C6963AB
:103240006B20413A2052756E204657440000000022
:10325000436C69636B20423A2052756E204257449A
:1032600000000000436C69636B20433A2053746F85
:1032700070000000436C69636B20443A204F706516
:103280006E204D656E75000003480121016000212C
:1032900041608160C160704718000020044900222D
:1032A0000B685A6209684A6A8242FCD37047000080
:1032B000E404002070B514461D460E46002814BFD5
:1032C00001210021314321F00041C1F17F6101F171
:1032D000E041C90F16D1002C14BF01210021294360
:1032E00021F00041C1F17F6101F1E041C90F09D135
:1032F0001449B1EB460F08BF00281CD0690008BF75
:10330000002C18D0314600F005FD024640F2FF7057
:1033100030EA11500DD0F017B0EBE17F09D008462C
:1033200065F31E0084460B462046614600F0A0FD72
:103330000246104670BD0120FDF719F8BDE8704047
:10334000FFF7E9BE0000E0FF1CB5FDF7ABFFFFF79C
:1033500005FDFEF7CDFF3E483C49002401603D4994
:10336000C0E901144FF48041C0E903414461846124
:10337000C4610462FDF750FD08B172B6FEE7FFF7C5
:1033800059F8334834499C3001604FF41651C0E974
:1033900001140C21C460C0E904418461C461FEF7DA
:1033A000A7FD08B172B6FEE729492022F431A1F148
:1033B0005800FEF764FC26485430FEF715FBFFF773
:1033C0007DFAFFF707FA01212020CDE900013C2317
:1033D000224A04212220FFF705FA26211920FFF7AF
:1033E00067FA01221E491FA0FFF76CFB3421082059
:1033F000FFF75EFA01221A491DA0FFF763FBFFF7F2
:1034000075FB1F4800681F4C4FF47A75E06428462E
:10341000FDF7ACFA1C48016828462165FDF7A6FABD
:103420001A4800686421E06290FBF1F000F020FF90
:10343000606500F09DF90021012000F0DBF8FFF746
:1034400023FF00BFFFF738F8FCE7000000540040FE
:1034500090040020801A060000380140EE58000851
:1034600000000020466F726D756C6174696E6700B4
:103470004120477265656E657220576F726C6400FB
:1034800010F001081800002010E8000810F80108EA
:1034900010B5FFF79FF900210E20FFF709FA01226E
:1034A000354936A0FFF70EFB09210020FFF700FA8F
:1034B0000122314935A0FFF705FB14210020FFF759
:1034C000F7F900222C4937A0FFF7FCFA2021002051
:1034D000FFF7EEF90122284937A0FFF7F3FA34216C
:1034E0000020FFF7E5F90022234938A0FFF7EAFAA8
:1034F00034210720FFF7DCF901221F4934A0FFF730
:10350000E1FA34212020FFF7D3F900221A4931A033
:10351000FFF7D8FA34212720FFF7CAF9012216490C
:103520002DA0FFF7CFFA34214520FFF7C1F9002283
:1035300011492BA0FFF7C6FA34214C20FFF7B8F948
:1035400001220D4927A0FFF7BDFA34215C20FFF7C7
:10355000AFF90022084924A0FFF7B4FA3421632010
:10356000FFF7A6F90122044920A0FFF7ABFABDE856
:103570001040FFF7BBBA000000000020434F415449
:10358000494E47202D20434F460000002D2D2D2D64
:103590002D2D2D2D2D2D2D2D2D2D2D2D2D2D2D2D5B
:1035A0000000000053706565642061646A7573747F
:1035B0006D656E7400000000434F46204D656173D9
:1035C000756172616D656E7400000000610000003D
:1035D0003A557000620000003A44574E0000000067
:1035E000630000003A3C0000640000003A456E743D
:1035F0000000000070B50C460546FFF7EBF800210F
:103600000E20FFF755F90122354936A0FFF75AFA87
:1036100009210020FFF74CF90122314935A0FFF7BD
:1036200051FA14210020FFF743F9EAB22C4937A0E0
:10363000FFF748FA20210020FFF73AF9E2B22849C3
:1036400037A0FFF73FFA34210020FFF731F90022BD
:10365000234938A0FFF736FA34210720FFF728F96D
:1036600001221F4934A0FFF72DFA34212020FFF753
:103670001FF900221A4931A0FFF724FA342127202C
:10368000FFF716F9012216492DA0FFF71BFA342186
:103690004520FFF70DF9002211492BA0FFF712FA80
:1036A00034214C20FFF704F901220D4927A0FFF730
:1036B00009FA34215C20FFF7FBF80022084924A016
:1036C000FFF700FA34216320FFF7F2F801220449E2
:1036D00020A0FFF7F7F9BDE87040FFF707BA000038
:1036E00000000020434F4154494E47202D20434FB6
:1036F000460000002D2D2D2D2D2D2D2D2D2D2D2D68
:103700002D2D2D2D2D2D2D2D0000000053706565C4
:10371000642061646A7573746D656E7400000000E6
:10372000434F46204D656173756172616D656E74BE
:1037300000000000610000003A55700062000000C7
:103740003A44574E00000000630000003A3C00007D
:10375000640000003A456E74000000000348002138
:10376000C163016441648164704700001800002057
:1037700070B50546084900F09DFC00F05DFD074C62
:10378000A065284600F06AFC0022054BFFF792FD79
:1037900000F042FAE06570BD0000204118000020F2
:1037A000000024400148401EFDD1704790D0030026
:1037B0001CB502238DF804100A2100918DF8052014
:1037C000014601AA0148FDF7A1FC1CBD90040020A0
:1037D00070B5C2B000248DF8041001A904E0155D95
:1037E0000E19641C7570E4B29C42F8D30A21009152
:1037F0005B1C01469BB201AA0248FDF787FC42B060
:1038000070BD00009004002010B591EA030F48BF7E
:1038100083F0004300F14083841A71EB030C05D25E
:10382000121943EB0C03001B61EB0C01DFF824E1E0
:103830004FEA1154A4EB135C1EEA430F18BF9EEA33
:10384000445F73D023EA0E03DCF1200E21EA045119
:1038500043F4801332D322FA0CFE10EB0E0023FA4D
:103860000CFE41EB0E01CCF1200E03FA0EFE10EB24
:103870000E0051F10001B1F5801FCCF1200E32D2C3
:1038800001EB045112FA0EF2BDE8104058BF704728
:10389000401C38BF5FEA420218BF7047002814BFBF
:1038A00020F0010041F100014FEA410313F5001F30
:1038B00038BF7047A1F1C04100F0D4BA012A43EBF0
:1038C0000302ACF1200CDCF11F0E32BF4FF0000EF2
:1038D00023FA0CF310EB030041EB0451B4EB115F3E
:1038E000D0D0A1EB045101F5801149085FEA300006
:1038F00001EB04510ED350F1000038BF12FA0EFE56
:1039000008D1BDE81040C9E7401C38BF5FEA420259
:10391000CAD1C3E7BDE810404FEA410313F5001FC9
:1039200038BF7047A1F1C04100F09CBA9EEA445FE5
:1039300008D011EA5E0FBDE8104004BF01F000415D
:1039400000207047BDE8104070B500F094F900BF4A
:1039500064FBBE3E0000E0FF02494FF0000000F0B3
:10396000EABC00BF0000F87F2DE9C04130B4DFF8A9
:10397000A0C23CEA111418BF3CEA131400F0EC801A
:1039800081EA03051CEA111444EAD57418BF1CEA45
:10399000131500F0C780A4EB05044FF0004545EA7D
:1039A000C12145EAC32341EA505143EA525304F18D
:1039B0007F74994204F500344FEAC0204FEAC222D6
:1039C00008BF904200F09C804FEA13650FF240164A
:1039D000765D4FEA134506FB05F7C7F1807706FBD6
:1039E00007F74FEAD737A7FB03687642C8F5803858
:1039F000A7FB06CE38BFA8F1010807FB08E64FF089
:103A0000000EA6FB028CE6FB03CEDCF1000CCEF12F
:103A1000004E38BFAEF1010EA6FB0C584FF0000768
:103A20004FF00005E6FB0E87A1FB08C6A0FB07CE02
:103A300016EB0E0645F10005E1FB076515F1E04EBA
:103A40007EBFA4F580345FEA46066D4116F180071B
:103A500045F100054FEA17274FEA066647EA056772
:103A6000A6F1DE46B6F1805F4FEA15251FD938462C
:103A700024F0010C05EBC471BCF1FE6F01EB0C11DD
:103A800002D8F0BCBDE8008124425CBF01F5801E75
:103A90009EEAC47F02D4F0BCBDE80081244238D441
:103AA000F0BCA1F1C041BDE8004100F0DBB94FEA34
:103AB000D22242EA43524FEAD323A7FB02864FEABF
:103AC000D02040EA415007FB03661EEA0E0F4FEA82
:103AD000D12105FB026658BFA6EB0056B6EB005697
:103AE0004FEA520E4EEAC37E18EB0E0E56EB530E03
:103AF000BDD518EB02085E417F1C55F10005B6E705
:103B00004FF480154FF000074FF000064FF000080B
:103B1000ADE7F0BC4FF0000001F1C04101F0004101
:103B2000BDE8008111EA0C1F0CEA131500D00CE06F
:103B300013EA0C1F00F025804FF00000F0BC81EA72
:103B4000030101F00041BDE80081F0BCBDE8004187
:103B500081EA030100F086B9F0BCBDE8004170B510
:103B600000F089F8097EFC3E00F007B881EA030105
:103B70004FF0000001F00041704781EA030100F0BE
:103B800071B9F0BCBDE800414FF000002149704719
:103B9000FFFDFBF9F7F5F4F2F0EEEDEBE9E8E6E412
:103BA000E3E1E0DEDDDBDAD8D7D5D4D3D1D0CFCD99
:103BB000CCCBCAC8C7C6C5C4C2C1C0BFBEBDBCBBD2
:103BC000BAB9B8B7B6B5B4B3B2B1B0AFAEADACABCD
:103BD000AAA9A8A8A7A6A5A4A3A3A2A1A09F9F9EA7
:103BE0009D9C9C9B9A999998979796959594939359
:103BF000929191908F8F8E8E8D8C8C8B8B8A8989F0
:103C00008888878786858584848383828281818072
:103C10000000FF070000F87F4FEA41034FEA5353CB
:103C2000A3F58063D3F11E03C8BFD3F1210C0CDDD3
:103C30004FF0004242EAC12242EA505232FA03FCFB
:103C40008CEAE17CACEBE1707047102BC4BF002024
:103C5000704703F5787CBCF1FF3F04D06FF0004261
:103C600082EA2100704770B500F005F8499224807F
:103C700000207047F2E70EF1020E2EF0030E5EF800
:103C8000046B364205D4012A43EB030515F5001FEA
:103C900012D8012841EB010C1CF5001F0CD80ED1E5
:103CA0004FEAD17C15F5001F0CEB4C0C0CF1020C0B
:103CB00008BF4CEBD37C04E04FF0080C01E04FEA66
:103CC000D37C0CEB4C0526FA05F606F00706B6F198
:103CD000040C06D20EEB860CBDE870404CF0010CD3
:103CE0006047DFE80CF0090B02024FF000414FF093
:103CF0000000A1F5002170BD19461046012851EBC6
:103D0000010418BFD4F5001484BF002001F0004165
:103D100070BD0000DFF844C170B53CEA111418BF53
:103D20003CEA131500F08F8011F1004F1CEA1315C7
:103D30000CEA111468BF45F0050518BF11EA0C1F05
:103D400000F079802E4621EA4C1123EA4C1341F40D
:103D5000801143F48013A5F58035AC423DDD801A17
:103D60009941A4F5803609D54042C1F1000134BF24
:103D7000B1F10101B1F1000185F0010511F4F01F6D
:103D800008D011F4801FE8D1400041EB0101A4F5F7
:103D90008034F6E721F00041B1FA81F6202E04BF0D
:103DA000B0FA80FE0EF12006A6F10B06B6F1200E49
:103DB000A4EB06440CD2C6F1200E01FA06F120FA5B
:103DC0000EF641EA0601CEF1200600FA06F003E005
:103DD00000FA0EF14FF00000BFE750EA410E23D089
:103DE0004FEA244EBEEB254F0FDB994208BF9042AD
:103DF00004D00AD3520043EB0303B0E74FEA164660
:103E0000B6EB144F08BF85F00105B4F5803401EB23
:103E1000041181EAC57100DB70BD01F1C0414FF0B2
:103E2000000001F0004170BD4FEA45714FF0000005
:103E300001F0004170BD1CEA131F09D04FF00000D3
:103E400001F0004170BDFFF716FF00BFEDFFFF3E20
:103E5000BDE870404FF00000014970470000FF07C7
:103E60000000F87F0808A0F500114FEA3101704703
:103E700091EA030F10B581F000413FF5CDAC83F01E
:103E8000004300F009B8000010B591EA030F48BFE5
:103E900083F000433FF5C0AC841A71EB030C07D2EA
:103EA00012198CF0004C43EB0C03001B61EB0C016E
:103EB000DFF8A4E14FEA1154A4EB135C1EEA430FB0
:103EC00018BF9EEA445F00F0B08023EA6E035242BE
:103ED00021EA0451C3EB6E0338BF5B1EDCF1200EF8
:103EE00025D322FA0CFE10EB0E0043FA0CFE41EB38
:103EF0000E01CCF1200E03FA0EFE10EB0E0051F174
:103F00000001CCF1200E29D412FA0EF201EB04517B
:103F1000BDE8104058BF7047401C1CBFB2F1004FB5
:103F2000704700280CBF491C20F00100704712EBBD
:103F3000020E43EB030218BF4FF0010E4EEA42029D
:103F4000ACF1200CDCF11E0E54D943FA0CFE10EB40
:103F50000E0051F1FF31CCF11E0ED5D50EF1010E40
:103F600012FA0EFE404141EB010101EB445C5FEAB5
:103F70005C5C10D910EBDE7001EB045138BFBEF170
:103F8000004FBDE8104018BF704700280CBF491C07
:103F900020F00100704730D24FEAD42C11F5001107
:103FA00024F400641BD0B1FA81F20B3AA41AA41EC7
:103FB000D2F12003914030FA03F31943904001EB12
:103FC000CC71002C01EB0451BDE81040A8BF704734
:103FD00001F1C0414FF0000001F000417047B0FA1C
:103FE00080F310FA03F100D110BDE41A173C480524
:103FF000C90AE4E701EB045110BD491001EB04517B
:10400000BDE810404FEA300002E04FF00001704779
:104010004A0008BF0042F8D0B2F5001F28BF704721
:1040200001F000414FF0000070479EEA445F07D066
:1040300011EA5E0FBDE8104004BF00210020704768
:10404000BDE8104070B5FFF716FE00BF40DFF63E3A
:1040500083F00041104670470000E0FF43004FEA44
:10406000D30C4FEA3C0C43401FBF40070CF160519A
:1040700013F0FE4F70471CF0006F03D100200CF0CE
:10408000004170470CF0004343EA507010B540EA1D
:10409000CC0000F005F900BF000000924FEA0001DB
:1040A000FFF7E0BE4FF000414FF00000A1F5002106
:1040B000704700004FF47F0C1CEAD0121EBF1CEAB0
:1040C000D11392EA0C0F93EA0C0F00F0858090EA6E
:1040D000010F48BF42F4807240F4000C41F400002C
:1040E0002CF07F4120F07F4000B58142A2EB03021B
:1040F0000FF2081CACEB504EC0F100009EF800E03F
:104100004FEA4E0E00FB0EFC38BF49004FEA2C1C54
:1041100002F5FA020CFB0EF34FEACE1E4FEA112C09
:104120004FEAC1210EEB635E42EB22420EFB0CFC18
:104130004FEA1C5300FB03114FEA112C4FEA0131E7
:104140000EFB0CFC4FEADC4C00FB0C11C14228BFFB
:1041500009184CEB03335DF804EB10EB410143EB22
:10416000C250B2F57C0F38BF704729D512F0F00F5E
:104170001CBF00F1C04000F0004070470081828306
:104180008485868788898B8C8D8E8F919293959666
:1041900097999A9C9D9FA0A2A3A5A7A8AAACAEB0F0
:1041A000B2B3B5B7B9BCBEC0C2C5C7C9CCCED1D4F5
:1041B000D7D9DCDFE2E6E9ECF0F3F7FAFE00000025
:1041C0004FEA400C0CF1807CBCF17E4F28BF704759
:1041D000B0F1C04000F0AAB890EA010F0CEAD11388
:1041E00048BF42F48072624538BF634507D213F47A
:1041F0007F0F16D080EA010000F00040704710B534
:1042000000F04EF8097EFC3E00F005B880EA01009F
:1042100000F00040704780EA010000F0004000F02C
:1042200085B812F47F0F04BF0248704780EA01008E
:1042300000F07CB80000C07F41000B0ED3F19E025D
:1042400008D950F400034FEA032323FA02F048BFD1
:104250004042704710B500F023F800BF4992248017
:10426000002070476FF0004282EA20007047000093
:1042700010F0004148BF4042B0FA80F310FA03F258
:10428000C3F19D030BD051EAC35101EB1220530639
:1042900038BF704700F1010008BF20F001007047EF
:1042A0000EF1020E2EF0030E5EF8044B244204D4ED
:1042B0004FEA4102B2F17F4F11D84FEA4003B3F108
:1042C0007F4F0CD80ED14FEAD07CB2F17F4F0CEB70
:1042D0004C0C0CF1020C08BF4CEBD17C04E04FF00D
:1042E000080C01E04FEAD17C0CEB4C0324FA03F4F8
:1042F00004F00704B4F1040C06D20EEB840CBDE804
:1043000010404CF0010C6047DFE80CF00708020297
:104310004FF00040A0F5800010BD0846420018BFD5
:10432000D2F1807288BF00F0004010BDFF2141EA49
:10433000D050C00570470CF00F03092B08BF0820B0
:1043400000F059800A2B0BD0082B18BF704708BF0C
:104350001CF0400F0AD04FF000004FF000017047F2
:104360001CF0400F18BF4FF0004070471CF0100FBA
:1043700008D020F0704300F07F4242EAD3014FEAB8
:104380004370704700F0604021F07F4242EA000233
:1043900001F07F4040EA727070474FF0FF0C4CF420
:1043A000E06C1CEA11531CBF9CEA030C9445C2BF8D
:1043B000DA4201EB02517047002B0DD0BCF1000F27
:1043C0000FD0002A01F00041A4BF41F0E04141F0CC
:1043D0007F614FF00000704701F000414FF0000096
:1043E000704750EA01334FF09B0C18BF4CF0806CC3
:1043F0007FF4B2AA70471CF4801F11D01CF4E02F88
:1044000003D06FEACC31490070474FF04050EFF3D2
:10441000008222F0704242EA000282F30088704774
:104420004FF0000070470000000000000000000096
:10443000000000000000000000000010001000104C
:104440000010001000100000001000000000002804
:10445000002800280000000000000000000000000C
:10446000000000240024007C00240048007C004858
:1044700000480000000000380054005000380014CC
:104480000054005400380010000000200054005870
:104490000030002800540014000800000000001044
:1044A00000280028001000340048004800340000B4
:1044B00000000010001000100000000000000000CC
:1044C0000000000000000008001000200020002074
:1044D000002000200020001000080020001000082C
:1044E0000008000800080008000800100020001064
:1044F000003800100028000000000000000000004C
:1045000000000000000000100010007C00100010EF
:10451000000000000000000000000000000000009B
:10452000000000000010001000100000000000005B
:104530000000000000380000000000000000000043
:10454000000000000000000000000000001000005B
:1045500000000008000800100010001000100020EB
:1045600000200000000000380044004400540044D3
:1045700000440044003800000000001000300050EB
:1045800000100010001000100010000000000038A3
:10459000004400440004000800100020007C0000DB
:1045A0000000003800440004001800040004004427
:1045B000003800000000000800180028002800480B
:1045C000007C0008000800000000007C0040004063
:1045D00000780004000400440038000000000038A7
:1045E00000440040007800440044004400380000CB
:1045F0000000007C000400080010001000200020D3
:10460000002000000000003800440044003800444E
:10461000004400440038000000000038004400441A
:104620000044003C0004004400380000000000008A
:10463000000000100000000000000000001000005A
:10464000000000000000000000100000000000005A
:1046500000100010001000000000000C00300040AE
:104660000030000C0000000000000000000000000E
:10467000007C0000007C0000000000000000000042
:104680000000006000180004001800600000000036
:104690000000003800440004000800100010000072
:1046A00000100000000000380044004C0054005C82
:1046B00000400040003800000000001000280028E2
:1046C00000280028007C004400440000000000781E
:1046D0000044004400780044004400440078000096
:1046E000000000380044004000400040004000440A
:1046F00000380000000000700048004400440044FE
:1047000000440048007000000000007C00400040B1
:10471000007C004000400040007C00000000007C65
:104720000040004000780040004000400040000091
:1047300000000038004400400040005C0044004499
:10474000003800000000004400440044007C0044A5
:104750000044004400440000000000380010001035
:1047600000100010001000100038000000000004CD
:1047700000040004000400040004004400380000A9
:10478000000000440048005000600050004800480D
:104790000044000000000040004000400040004095
:1047A00000400040007C000000000044006C006CF1
:1047B0000054004400440044004400000000004451
:1047C0000064006400540054004C004C004400009D
:1047D0000000003800440044004400440044004409
:1047E00000380000000000780044004400440078D5
:1047F0000040004000400000000000380044004439
:1048000000440044004400540038000400000078D4
:104810000044004400440078004800480044000080
:10482000000000380044004000300008000400444C
:10483000003800000000007C001000100010001084
:10484000001000100010000000000044004400446C
:1048500000440044004400440038000000000044CC
:104860000044004400280028002800100010000028
:10487000000000440044005400540054006C002820
:10488000002800000000004400280028001000104C
:1048900000280028004400000000004400440028D4
:1048A0000028001000100010001000000000007C24
:1048B000000400080010001000200040007C0000F0
:1048C0000000001800100010001000100010001070
:1048D0000010001000180020002000100010001030
:1048E0000010000800080000000000300010001058
:1048F0000010001000100010001000100030001018
:104900000028002800440000000000000000000013
:104910000000000000000000000000000000000097
:104920000000000000FE0020001000000000000059
:10493000000000000000000000000000000000383F
:104940000044003C0044004C0034000000000040E3
:104950000040005800640044004400640058000017
:104960000000000000000038004400400040004407
:10497000003800000000000400040034004C004433
:104980000044004C0034000000000000000000382B
:104990000044007C00400044003800000000000C8F
:1049A0000010007C0010001000100010001000002B
:1049B0000000000000000034004C00440044004CA3
:1049C00000340004007800400040005800640044B7
:1049D000004400440044000000000010000000708B
:1049E0000010001000100010001000000000001067
:1049F00000000070001000100010001000100010E7
:104A000000E00040004000480050006000500048B6
:104A100000440000000000700010001000100010A2
:104A200000100010001000000000000000000078DE
:104A300000540054005400540054000000000000D2
:104A4000000000580064004400440044004400009A
:104A5000000000000000003800440044004400440E
:104A6000003800000000000000000058006400440E
:104A70000044006400580040004000000000003482
:104A8000004C00440044004C0034000400040000CA
:104A9000000000580064004000400040004000005A
:104AA000000000000000003800440030000800440E
:104AB00000380000000000200020007800200020C6
:104AC000002000200018000000000000000000444A
:104AD000004400440044004C00340000000000008A
:104AE00000000044004400280028002800100000B6
:104AF000000000000000005400540054006C002826
:104B00000028000000000000000000440028001001
:104B100000100028004400000000000000000044D5
:104B20000044002800280010001000100060000061
:104B30000000007C0008001000200040007C000005
:104B400000000018001000100010002000200010CD
:104B500000100010001800100010001000100010CD
:104B600000100010001000100010003000100010A5
:104B700000100008000800100010001000300000B5
:104B8000000000000074004C000000000000000065
:104B90000000000000000000000000000000000015
:104BA0000000000000000000000000000000000005
:104BB0000000000000000000000C000C000C000CC5
:104BC000000C000C000C000C000C000C000C000091
:104BD000000C000C0000000000000000001B001B87
:104BE000001B001B001B0000000000000000000074
:104BF00000000000000000000000000000000000B5
:104C00008019801980198019C07FC07F80190033F6
:104C1000C07FC07F0033003300330033000000004A
:104C200000000000001E003F807580650074003C9D
:104C3000001E00078005806580658075003F001EAE
:104C40000004000400000000007000D840D8C0D864
:104C500080D900730006000C801BC036C066C046B9
:104C6000C00680030000000000000000001E003F9E
:104C7000003300330033001E000CC03CC06680636C
:104C800080618063C03E801C0000000000000000C6
:104C9000000C000C000C000C000C000000000000D8
:104CA0000000000000000000000000000000000004
:104CB0000000800000010003000600060004000C54
:104CC000000C000C000C000C000C00040006000698
:104CD000000300018000002000100018000C000CF0
:104CE0000004000600060006000600060006000498
:104CF000000C000C0018001000200000000C002D1B
:104D0000003F001E00330000000000000000000013
:104D10000000000000000000000000000000000093
:104D200000000000000C000C000C000CC0FFC0FFD5
:104D3000000C000C000C000C000000000000000043
:104D40000000000000000000000000000000000063
:104D5000000000000000000000000000000C000C3B
:104D60000004000400080000000000000000000033
:104D70000000000000000000001E001E00000000F7
:104D80000000000000000000000000000000000023
:104D90000000000000000000000000000000000013
:104DA00000000000000C000C0000000000000000EB
:104DB0000003000300030006000600060006000CC6
:104DC000000C000C000C0018001800180000000077
:104DD00000000000001E003F0033806180618061A0
:104DE000806D806D8061806180610033003F001EB6
:104DF00000000000000000000006000E001E00364B
:104E00000026000600060006000600060006000652
:104E1000000600060000000000000000001E003F29
:104E2000807380618061800100030006000C00181F
:104E300000300060807F807F0000000000000000E4
:104E4000001C003E006300630003000E000E000320
:104E50008001800180618073003F001E000000001F
:104E6000000000000006000E000E001E001E0016CE
:104E7000003600360066807F807F00060006000650
:104E80000000000000000000007F007F0060006064
:104E90000060006E007F806380018001806180730C
:104EA000003F001E0000000000000000001E003F48
:104EB000803380610060006E007F8073806180615C
:104EC00080618033003F001E0000000000000000F1
:104ED000807F807F80010003000300060006000C35
:104EE000000C000C0008001800180018000000005A
:104EF00000000000001E003F80638061806100218F
:104F0000001E003F8061806180618061003F001E63
:104F10000000000000000000001E003F00738061E0
:104F2000806180618073803F801D8001806100739B
:104F3000003F001E00000000000000000000000014
:104F400000000000000C000C000000000000000049
:104F500000000000000C000C000000000000000039
:104F600000000000000000000000000C000C000029
:104F70000000000000000000000C000C0004000411
:104F80000008000000000000000080008003000E08
:104F9000003800600038000E800380000000000030
:104FA0000000000000000000000000000000000001
:104FB000807F807F00000000807F807F00000000F5
:104FC00000000000000000000000000000000000E1
:104FD000000000400070001C000780010007001C5A
:104FE0000070004000000000000000000000000011
:104FF000001F803FC071C060C000C0018003000777
:10500000000E000C000C0000000C000C0000000062
:1050100000000000001E003F803180718063806FBF
:10502000806D806D806F806700600032003E001CE4
:105030000000000000000000000E000E001B001B1E
:10504000001B001B80318031803F803F8031C06079
:10505000C060C0600000000000000000007C007E16
:105060000063006300630063007E007E0063806174
:1050700080618063007F007E00000000000000006F
:10508000001E003F803180610060006000600060B1
:105090000060006080618031003F001E0000000061
:1050A00000000000007C007F0063806380618061FD
:1050B000806180618061806100630063007E007CAC
:1050C0000000000000000000807F807F0060006022
:1050D00000600060007F007F006000600060006092
:1050E000807F807F0000000000000000807F807FC4
:1050F0000060006000600060007F007F0060006072
:10510000006000600060006000000000000000001F
:10511000001E003F8031806100600060006080639D
:105120008063806180618031803F001E000000004C
:105130000000000080618061806180618061806129
:10514000807F807F8061806180618061806180611B
:105150000000000000000000003F003F000C000CB9
:10516000000C000C000C000C000C000C000C000CDF
:10517000003F003F000000000000000080018001AF
:1051800080018001800180018001800180018061B7
:1051900080618073003F001E0000000000000000DE
:1051A000C0608061006300660066006C0078007C6F
:1051B00000660066006380618061C06000000000DE
:1051C000000000000060006000600060006000609F
:1051D000006000600060006000600060807F807F91
:1051E0000000000000000000C071C071C07BC07AE8
:1051F000C06AC06AC06EC064C060C060C060C06089
:10520000C060C0600000000000000000807180717C
:10521000807980798079806D806D806D8065806710
:1052200080678067806380630000000000000000EA
:10523000001E003F00338061806180618061806179
:105240008061806180610033003F001E000000002B
:1052500000000000007E007F8063806180618061CB
:105260008063007F007E006000600060006000607E
:105270000000000000000000001E003F00338061BD
:1052800080618061806180618061806580670033BA
:10529000803F401E0000000000000000007E007FF4
:1052A0008063806180618063007F007E00660063B0
:1052B000006380618061C0600000000000000000A9
:1052C000000E001F8031803100300038001E0007C2
:1052D0008003806180618031003F001E000000007B
:1052E00000000000C0FFC0FF000C000C000C000C10
:1052F000000C000C000C000C000C000C000C000C4E
:105300000000000000000000806180618061806119
:105310008061806180618061806180618061807373
:10532000003F001E0000000000000000C060C060E0
:10533000C060803180318031001B001B001B001BCE
:10534000000E000E000E000400000000000000002F
:10535000C0C0C0C0C0C0C0C0C0C0C0CC804C804CA9
:10536000805E805280528073806180610000000006
:1053700000000000C0C0806080610033003B001E60
:10538000000C000C001E001F003B80718061C0C03B
:105390000000000000000000C0C080618061003398
:1053A0000033001E001E000C000C000C000C000C52
:1053B000000C000C0000000000000000803F803F57
:1053C0008001000300030006000C000C0018001808
:1053D00000300060807F807F000000000000000F30
:1053E000000F000C000C000C000C000C000C000C5A
:1053F000000C000C000C000C000C000C000C000F4A
:10540000000F0000001800180018000C000C000C21
:10541000000C00060006000600060003000300035F
:10542000000000000000001E001E0006000600062E
:10543000000600060006000600060006000600063C
:10544000000600060006001E001E0000000C000CF6
:10545000001E0012003300338061806100000000F4
:10546000000000000000000000000000000000003C
:10547000000000000000000000000000000000002C
:105480000000000000000000000000000000E0FF3D
:105490000000000000380018000C000000000000B0
:1054A00000000000000000000000000000000000FC
:1054B00000000000000000000000000000000000EC
:1054C000001F803F80618001801F803F806180637A
:1054D000807FC03800000000000000000060006015
:1054E00000600060006E007F807380618061806179
:1054F00080618073007F006E0000000000000000EB
:105500000000000000000000001E003F807380616A
:105510000060006080618073003F001E000000009A
:10552000000000008001800180018001801D803F1B
:10553000807380618061806180618073803F801DA5
:10554000000000000000000000000000000000005B
:10555000001E003F00738061807F807F006080714B
:10556000003F001E0000000000000000C007C00F48
:10557000000C000C807F807F000C000C000C000CE5
:10558000000C000C000C000C0000000000000000EB
:10559000000000000000801D803F807380618061FA
:1055A000806180618073803F801D80018063007F07
:1055B000003E00000060006000600060006F807FBF
:1055C00080718061806180618061806180618061C3
:1055D00000000000000000000006000600000000BF
:1055E000003E003E0006000600060006000600061B
:1055F0000006000600000000000000060006000093
:105600000000003E003E0006000600060006000600
:1056100000060006000600060046007E003C000072
:105620000060006000600060806100630066006CE4
:10563000007C0076006300638061C06000000000B1
:1056400000000000003E003E0006000600060006C6
:10565000000600060006000600060006000600061A
:10566000000000000000000000000000000000003A
:1056700080DDC0FFC0CEC0CCC0CCC0CCC0CCC0CCC4
:10568000C0CCC0CC00000000000000000000000002
:1056900000000000006F807F807180618061806108
:1056A0008061806180618061000000000000000076
:1056B0000000000000000000001E003F80738061B9
:1056C0008061806180618073003F001E00000000E7
:1056D00000000000000000000000006E007F8073EA
:1056E00080618061806180618073007F006E0060F6
:1056F0000060006000600000000000000000801DED
:10570000803F807380618061806180618073803FB1
:10571000801D8001800180018001000000000000E8
:10572000000000000067803F00390030003000308A
:1057300000300030003000300000000000000000A9
:105740000000000000000000001E803F806100603B
:10575000007F803F80018061007F001E000000000C
:10576000000000000000000800180018007F007F03
:10577000001800180018001800180018801F800F6B
:105780000000000000000000000000000000000019
:1057900080618061806180618061806180618063FF
:1057A000807F803D0000000000000000000000003D
:1057B00000000000C060803180318031001B001B80
:1057C000001B000E000E000600000000000000009C
:1057D000000000000000000080DD80DD80DD00555D
:1057E00000550055007700770022002200000000DD
:1057F0000000000000000000000000008061003395
:105800000033001E000C000C001E003300338061CA
:1058100000000000000000000000000000008061A7
:105820008061803100330033001B001B001B000E21
:10583000000E000E001C007C007000000000000044
:1058400000000000C07FC07F800100030006000C44
:1058500000180030C07FC07F0000000000008003FF
:10586000800700060006000600060006000E001C69
:10587000001C000E00060006000600060006800759
:10588000800300060006000600060006000600066B
:1058900000060006000600060006000600060006D8
:1058A0000006000600060038003C000C000C000C4E
:1058B000000C000C000E00070007000E000C000C8E
:1058C000000C000C000C003C003800000000000040
:1058D00000000000000000008038807F00470000CA
:1058E00000000000000000000000000000000000B8
:1058F0000000000C000000000000007880000000A4
:10590000000001F020000000000003FF0000000084
:1059100000000FFC00000000000007C000000000B5
:1059200000000000000000000000000200007807F6
:10593000C003800C0000FC0FC00380000000FC0FBF
:10594000C00380000000EC0DC00180000000EC0DE1
:10595000F81D8FE0FE00E61DF81D9FF3FF00E6191D
:10596000FC3BB83B8700E619DC3B803F0380E6192F
:10597000DC3B807F0380E339CC738FFF0380E3310E
:10598000CE739F3F0380E331CE63F83F0380E3B1E2
:10599000C663F03F0380E1F1C7E3F0370380E1E144
:1059A000C7C3F8770380E1E1C3C3BFE70380E1E148
:1059B000C3C38FC703800000038000000000000005
:1059C00003800000000000000780000000000000CD
:1059D0001F000000000000001E000000000000008A
:1059E000000000000000000000000000000000C1F6
:1059F000814001C0804101C0804100C1814001C09F
:105A0000804100C1814000C1814001C0804101C08E
:105A1000804100C1814000C1814001C0804100C17E
:105A2000814001C0804101C0804100C1814001C06E
:105A3000804100C1814000C1814001C0804100C15E
:105A4000814001C0804101C0804100C1814000C14E
:105A5000814001C0804101C0804100C1814001C03E
:105A6000804100C1814000C1814001C0804101C02E
:105A7000804100C1814000C1814001C0804100C11E
:105A8000814001C0804101C0804100C1814000C10E
:105A9000814001C0804101C0804100C1814001C0FE
:105AA000804100C1814000C1814001C0804100C1EE
:105AB000814001C0804101C0804100C1814001C0DE
:105AC000804100C1814000C1814001C0804101C0CE
:105AD000804100C1814000C1814001C0804100C1BE
